{
  "_format": "hh-sol-artifact-1",
  "contractName": "Voting",
  "sourceName": "contracts/Voting.sol",
  "abi": [
    {
      "inputs": [
        {
          "internalType": "string[]",
          "name": "candidateNames",
          "type": "string[]"
        },
        {
          "internalType": "uint256",
          "name": "_durationInMinutes",
          "type": "uint256"
        },
        {
          "internalType": "bool",
          "name": "_isAnonymous",
          "type": "bool"
        }
      ],
      "stateMutability": "nonpayable",
      "type": "constructor"
    },
    {
      "inputs": [
        {
          "internalType": "string",
          "name": "name",
          "type": "string"
        }
      ],
      "name": "addCandidate",
      "outputs": [],
      "stateMutability": "nonpayable",
      "type": "function"
    },
    {
      "inputs": [],
      "name": "candidateManager",
      "outputs": [
        {
          "internalType": "contract CandidateManager",
          "name": "",
          "type": "address"
        }
      ],
      "stateMutability": "view",
      "type": "function"
    },
    {
      "inputs": [
        {
          "internalType": "address",
          "name": "user",
          "type": "address"
        }
      ],
      "name": "didVote",
      "outputs": [
        {
          "internalType": "bool",
          "name": "",
          "type": "bool"
        }
      ],
      "stateMutability": "view",
      "type": "function"
    },
    {
      "inputs": [
        {
          "internalType": "uint256",
          "name": "id",
          "type": "uint256"
        }
      ],
      "name": "disableCandidate",
      "outputs": [],
      "stateMutability": "nonpayable",
      "type": "function"
    },
    {
      "inputs": [
        {
          "internalType": "uint256",
          "name": "id",
          "type": "uint256"
        },
        {
          "internalType": "string",
          "name": "newName",
          "type": "string"
        }
      ],
      "name": "editCandidate",
      "outputs": [],
      "stateMutability": "nonpayable",
      "type": "function"
    },
    {
      "inputs": [],
      "name": "endVotingEarly",
      "outputs": [],
      "stateMutability": "nonpayable",
      "type": "function"
    },
    {
      "inputs": [
        {
          "internalType": "uint256",
          "name": "additionalMinutes",
          "type": "uint256"
        }
      ],
      "name": "extendVoting",
      "outputs": [],
      "stateMutability": "nonpayable",
      "type": "function"
    },
    {
      "inputs": [],
      "name": "getCandidateList",
      "outputs": [
        {
          "components": [
            {
              "internalType": "string",
              "name": "name",
              "type": "string"
            },
            {
              "internalType": "bool",
              "name": "isActive",
              "type": "bool"
            }
          ],
          "internalType": "struct CandidateManager.Candidate[]",
          "name": "",
          "type": "tuple[]"
        }
      ],
      "stateMutability": "view",
      "type": "function"
    },
    {
      "inputs": [],
      "name": "getVotePercentages",
      "outputs": [
        {
          "internalType": "uint256[]",
          "name": "",
          "type": "uint256[]"
        },
        {
          "internalType": "string[]",
          "name": "",
          "type": "string[]"
        },
        {
          "internalType": "uint256[]",
          "name": "",
          "type": "uint256[]"
        }
      ],
      "stateMutability": "view",
      "type": "function"
    },
    {
      "inputs": [],
      "name": "getVotesBreakdown",
      "outputs": [
        {
          "internalType": "uint256[]",
          "name": "",
          "type": "uint256[]"
        },
        {
          "internalType": "string[]",
          "name": "",
          "type": "string[]"
        },
        {
          "internalType": "uint256[]",
          "name": "",
          "type": "uint256[]"
        }
      ],
      "stateMutability": "view",
      "type": "function"
    },
    {
      "inputs": [],
      "name": "hasVotingEnded",
      "outputs": [
        {
          "internalType": "bool",
          "name": "",
          "type": "bool"
        }
      ],
      "stateMutability": "view",
      "type": "function"
    },
    {
      "inputs": [],
      "name": "isAnonymous",
      "outputs": [
        {
          "internalType": "bool",
          "name": "",
          "type": "bool"
        }
      ],
      "stateMutability": "view",
      "type": "function"
    },
    {
      "inputs": [],
      "name": "isVotingActive",
      "outputs": [
        {
          "internalType": "bool",
          "name": "",
          "type": "bool"
        }
      ],
      "stateMutability": "view",
      "type": "function"
    },
    {
      "inputs": [],
      "name": "owner",
      "outputs": [
        {
          "internalType": "address",
          "name": "",
          "type": "address"
        }
      ],
      "stateMutability": "view",
      "type": "function"
    },
    {
      "inputs": [
        {
          "internalType": "address",
          "name": "newOwner",
          "type": "address"
        }
      ],
      "name": "setOwner",
      "outputs": [],
      "stateMutability": "nonpayable",
      "type": "function"
    },
    {
      "inputs": [],
      "name": "totalVotes",
      "outputs": [
        {
          "internalType": "uint256",
          "name": "",
          "type": "uint256"
        }
      ],
      "stateMutability": "view",
      "type": "function"
    },
    {
      "inputs": [
        {
          "internalType": "uint256",
          "name": "candidateId",
          "type": "uint256"
        }
      ],
      "name": "vote",
      "outputs": [],
      "stateMutability": "nonpayable",
      "type": "function"
    },
    {
      "inputs": [
        {
          "internalType": "string",
          "name": "name",
          "type": "string"
        }
      ],
      "name": "voteByName",
      "outputs": [],
      "stateMutability": "nonpayable",
      "type": "function"
    },
    {
      "inputs": [],
      "name": "votingEnd",
      "outputs": [
        {
          "internalType": "uint256",
          "name": "",
          "type": "uint256"
        }
      ],
      "stateMutability": "view",
      "type": "function"
    },
    {
      "inputs": [],
      "name": "votingMode",
      "outputs": [
        {
          "internalType": "contract IVotingMode",
          "name": "",
          "type": "address"
        }
      ],
      "stateMutability": "view",
      "type": "function"
    },
    {
      "inputs": [],
      "name": "votingStart",
      "outputs": [
        {
          "internalType": "uint256",
          "name": "",
          "type": "uint256"
        }
      ],
      "stateMutability": "view",
      "type": "function"
    },
    {
      "inputs": [],
      "name": "winnerList",
      "outputs": [
        {
          "internalType": "uint256[]",
          "name": "",
          "type": "uint256[]"
        }
      ],
      "stateMutability": "view",
      "type": "function"
    }
  ],
  "bytecode": "0x608060405234801561001057600080fd5b5060405161775f38038061775f8339818101604052810190610032919061060b565b61004233836102b260201b60201c565b80600460146101000a81548160ff021916908315150217905550600060405161006a9061031b565b604051809103906000f080158015610086573d6000803e3d6000fd5b50905060005b8451811015610127578173ffffffffffffffffffffffffffffffffffffffff1663462e91ec8683815181106100c4576100c361067a565b5b60200260200101516040518263ffffffff1660e01b81526004016100e891906106fe565b600060405180830381600087803b15801561010257600080fd5b505af1158015610116573d6000803e3d6000fd5b50505050808060010191505061008c565b5080600360006101000a81548173ffffffffffffffffffffffffffffffffffffffff021916908373ffffffffffffffffffffffffffffffffffffffff1602179055508115610212576000600360009054906101000a900473ffffffffffffffffffffffffffffffffffffffff16306040516101a190610328565b6101ac929190610761565b604051809103906000f0801580156101c8573d6000803e3d6000fd5b50905080600460006101000a81548173ffffffffffffffffffffffffffffffffffffffff021916908373ffffffffffffffffffffffffffffffffffffffff160217905550506102a9565b600360009054906101000a900473ffffffffffffffffffffffffffffffffffffffff1660405161024190610335565b61024b919061078a565b604051809103906000f080158015610267573d6000803e3d6000fd5b50600460006101000a81548173ffffffffffffffffffffffffffffffffffffffff021916908373ffffffffffffffffffffffffffffffffffffffff1602179055505b5050505061084a565b816000806101000a81548173ffffffffffffffffffffffffffffffffffffffff021916908373ffffffffffffffffffffffffffffffffffffffff16021790555042600181905550603c8161030691906107d4565b426103119190610816565b6002819055505050565b611a9080612b4883390190565b611a7e806145d883390190565b6117098061605683390190565b6000604051905090565b600080fd5b600080fd5b600080fd5b6000601f19601f8301169050919050565b7f4e487b7100000000000000000000000000000000000000000000000000000000600052604160045260246000fd5b6103a48261035b565b810181811067ffffffffffffffff821117156103c3576103c261036c565b5b80604052505050565b60006103d6610342565b90506103e2828261039b565b919050565b600067ffffffffffffffff8211156104025761040161036c565b5b602082029050602081019050919050565b600080fd5b600080fd5b600067ffffffffffffffff8211156104385761043761036c565b5b6104418261035b565b9050602081019050919050565b60005b8381101561046c578082015181840152602081019050610451565b60008484015250505050565b600061048b6104868461041d565b6103cc565b9050828152602081018484840111156104a7576104a6610418565b5b6104b284828561044e565b509392505050565b600082601f8301126104cf576104ce610356565b5b81516104df848260208601610478565b91505092915050565b60006104fb6104f6846103e7565b6103cc565b9050808382526020820190506020840283018581111561051e5761051d610413565b5b835b8181101561056557805167ffffffffffffffff81111561054357610542610356565b5b80860161055089826104ba565b85526020850194505050602081019050610520565b5050509392505050565b600082601f83011261058457610583610356565b5b81516105948482602086016104e8565b91505092915050565b6000819050919050565b6105b08161059d565b81146105bb57600080fd5b50565b6000815190506105cd816105a7565b92915050565b60008115159050919050565b6105e8816105d3565b81146105f357600080fd5b50565b600081519050610605816105df565b92915050565b6000806000606084860312156106245761062361034c565b5b600084015167ffffffffffffffff81111561064257610641610351565b5b61064e8682870161056f565b935050602061065f868287016105be565b9250506040610670868287016105f6565b9150509250925092565b7f4e487b7100000000000000000000000000000000000000000000000000000000600052603260045260246000fd5b600081519050919050565b600082825260208201905092915050565b60006106d0826106a9565b6106da81856106b4565b93506106ea81856020860161044e565b6106f38161035b565b840191505092915050565b6000602082019050818103600083015261071881846106c5565b905092915050565b600073ffffffffffffffffffffffffffffffffffffffff82169050919050565b600061074b82610720565b9050919050565b61075b81610740565b82525050565b60006040820190506107766000830185610752565b6107836020830184610752565b9392505050565b600060208201905061079f6000830184610752565b92915050565b7f4e487b7100000000000000000000000000000000000000000000000000000000600052601160045260246000fd5b60006107df8261059d565b91506107ea8361059d565b92508282026107f88161059d565b9150828204841483151761080f5761080e6107a5565b5b5092915050565b60006108218261059d565b915061082c8361059d565b9250828201905080821115610844576108436107a5565b5b92915050565b6122ef806108596000396000f3fe608060405234801561001057600080fd5b50600436106101425760003560e01c806347cf6f76116100b8578063a6a41f441161007c578063a6a41f441461031d578063ecc72b3d1461033b578063ed25286114610359578063f26c72db14610379578063f3e02cf714610395578063fdbc4006146103b157610142565b806347cf6f761461028b57806385a38635146102a957806388c10463146102c75780638da5cb5b146102e3578063a1b1d3af1461030157610142565b806323d071881161010a57806323d07188146101d9578063354d91de146101f75780633973b4c5146102275780633c0476dd146102315780633dd079c014610251578063462e91ec1461026f57610142565b80630121b93f146101475780630d15fd7714610163578063101158af1461018157806313af40351461019f57806315d6af8f146101bb575b600080fd5b610161600480360381019061015c919061123b565b6103cf565b005b61016b6104b4565b6040516101789190611277565b60405180910390f35b61018961054c565b6040516101969190611277565b60405180910390f35b6101b960048036038101906101b491906112f0565b610552565b005b6101c3610692565b6040516101d091906113db565b60405180910390f35b6101e161072f565b6040516101ee919061145c565b60405180910390f35b610211600480360381019061020c91906112f0565b610755565b60405161021e9190611492565b60405180910390f35b61022f6108b3565b005b6102396109e1565b604051610248939291906115ff565b60405180910390f35b610259610a87565b6040516102669190611492565b60405180910390f35b61028960048036038101906102849190611780565b610a93565b005b610293610bb1565b6040516102a09190611492565b60405180910390f35b6102b1610bcc565b6040516102be9190611277565b60405180910390f35b6102e160048036038101906102dc9190611780565b610bd2565b005b6102eb610cd2565b6040516102f891906117d8565b60405180910390f35b61031b6004803603810190610316919061123b565b610cf6565b005b610325610e14565b6040516103329190611814565b60405180910390f35b610343610e3a565b6040516103509190611492565b60405180910390f35b610361610e4d565b604051610370939291906115ff565b60405180910390f35b610393600480360381019061038e919061182f565b610ef3565b005b6103af60048036038101906103aa919061123b565b611014565b005b6103b9611154565b6040516103c69190611999565b60405180910390f35b60015442101580156103e357506002544211155b610422576040517f08c379a000000000000000000000000000000000000000000000000000000000815260040161041990611a18565b60405180910390fd5b600460009054906101000a900473ffffffffffffffffffffffffffffffffffffffff1673ffffffffffffffffffffffffffffffffffffffff166302d947ef82336040518363ffffffff1660e01b815260040161047f929190611a38565b600060405180830381600087803b15801561049957600080fd5b505af11580156104ad573d6000803e3d6000fd5b5050505050565b6000600460009054906101000a900473ffffffffffffffffffffffffffffffffffffffff1673ffffffffffffffffffffffffffffffffffffffff1663793cf2186040518163ffffffff1660e01b8152600401602060405180830381865afa158015610523573d6000803e3d6000fd5b505050506040513d601f19601f820116820180604052508101906105479190611a76565b905090565b60015481565b60008054906101000a900473ffffffffffffffffffffffffffffffffffffffff1673ffffffffffffffffffffffffffffffffffffffff163373ffffffffffffffffffffffffffffffffffffffff16146105e0576040517f08c379a00000000000000000000000000000000000000000000000000000000081526004016105d790611aef565b60405180910390fd5b600073ffffffffffffffffffffffffffffffffffffffff168173ffffffffffffffffffffffffffffffffffffffff160361064f576040517f08c379a000000000000000000000000000000000000000000000000000000000815260040161064690611b5b565b60405180910390fd5b806000806101000a81548173ffffffffffffffffffffffffffffffffffffffff021916908373ffffffffffffffffffffffffffffffffffffffff16021790555050565b6060600460009054906101000a900473ffffffffffffffffffffffffffffffffffffffff1673ffffffffffffffffffffffffffffffffffffffff166315d6af8f6040518163ffffffff1660e01b8152600401600060405180830381865afa158015610701573d6000803e3d6000fd5b505050506040513d6000823e3d601f19601f8201168201806040525081019061072a9190611c43565b905090565b600460009054906101000a900473ffffffffffffffffffffffffffffffffffffffff1681565b6000600460149054906101000a900460ff161561080f57600460009054906101000a900473ffffffffffffffffffffffffffffffffffffffff1673ffffffffffffffffffffffffffffffffffffffff166309eef43e836040518263ffffffff1660e01b81526004016107c791906117d8565b602060405180830381865afa1580156107e4573d6000803e3d6000fd5b505050506040513d601f19601f820116820180604052508101906108089190611cb8565b90506108ae565b600460009054906101000a900473ffffffffffffffffffffffffffffffffffffffff1673ffffffffffffffffffffffffffffffffffffffff166309eef43e836040518263ffffffff1660e01b815260040161086a91906117d8565b602060405180830381865afa158015610887573d6000803e3d6000fd5b505050506040513d601f19601f820116820180604052508101906108ab9190611cb8565b90505b919050565b60008054906101000a900473ffffffffffffffffffffffffffffffffffffffff1673ffffffffffffffffffffffffffffffffffffffff163373ffffffffffffffffffffffffffffffffffffffff1614610941576040517f08c379a000000000000000000000000000000000000000000000000000000000815260040161093890611aef565b60405180910390fd5b600154421015610986576040517f08c379a000000000000000000000000000000000000000000000000000000000815260040161097d90611d31565b60405180910390fd5b6002544211156109cb576040517f08c379a00000000000000000000000000000000000000000000000000000000081526004016109c290611d9d565b60405180910390fd5b612710426109d99190611dec565b600281905550565b6060806060600460009054906101000a900473ffffffffffffffffffffffffffffffffffffffff1673ffffffffffffffffffffffffffffffffffffffff16633c0476dd6040518163ffffffff1660e01b8152600401600060405180830381865afa158015610a53573d6000803e3d6000fd5b505050506040513d6000823e3d601f19601f82011682018060405250810190610a7c9190611f71565b925092509250909192565b60006002544211905090565b60008054906101000a900473ffffffffffffffffffffffffffffffffffffffff1673ffffffffffffffffffffffffffffffffffffffff163373ffffffffffffffffffffffffffffffffffffffff1614610b21576040517f08c379a0000000000000000000000000000000000000000000000000000000008152600401610b1890611aef565b60405180910390fd5b600360009054906101000a900473ffffffffffffffffffffffffffffffffffffffff1673ffffffffffffffffffffffffffffffffffffffff1663462e91ec826040518263ffffffff1660e01b8152600401610b7c9190612051565b600060405180830381600087803b158015610b9657600080fd5b505af1158015610baa573d6000803e3d6000fd5b5050505050565b60006001544210158015610bc757506002544211155b905090565b60025481565b6001544210158015610be657506002544211155b610c25576040517f08c379a0000000000000000000000000000000000000000000000000000000008152600401610c1c90611a18565b60405180910390fd5b6000600360009054906101000a900473ffffffffffffffffffffffffffffffffffffffff1673ffffffffffffffffffffffffffffffffffffffff1663dd2e7ad0836040518263ffffffff1660e01b8152600401610c829190612051565b602060405180830381865afa158015610c9f573d6000803e3d6000fd5b505050506040513d601f19601f82011682018060405250810190610cc39190611a76565b9050610cce816103cf565b5050565b60008054906101000a900473ffffffffffffffffffffffffffffffffffffffff1681565b60008054906101000a900473ffffffffffffffffffffffffffffffffffffffff1673ffffffffffffffffffffffffffffffffffffffff163373ffffffffffffffffffffffffffffffffffffffff1614610d84576040517f08c379a0000000000000000000000000000000000000000000000000000000008152600401610d7b90611aef565b60405180910390fd5b600360009054906101000a900473ffffffffffffffffffffffffffffffffffffffff1673ffffffffffffffffffffffffffffffffffffffff1663a1b1d3af826040518263ffffffff1660e01b8152600401610ddf9190611277565b600060405180830381600087803b158015610df957600080fd5b505af1158015610e0d573d6000803e3d6000fd5b5050505050565b600360009054906101000a900473ffffffffffffffffffffffffffffffffffffffff1681565b600460149054906101000a900460ff1681565b6060806060600460009054906101000a900473ffffffffffffffffffffffffffffffffffffffff1673ffffffffffffffffffffffffffffffffffffffff1663ed2528616040518163ffffffff1660e01b8152600401600060405180830381865afa158015610ebf573d6000803e3d6000fd5b505050506040513d6000823e3d601f19601f82011682018060405250810190610ee89190611f71565b925092509250909192565b60008054906101000a900473ffffffffffffffffffffffffffffffffffffffff1673ffffffffffffffffffffffffffffffffffffffff163373ffffffffffffffffffffffffffffffffffffffff1614610f81576040517f08c379a0000000000000000000000000000000000000000000000000000000008152600401610f7890611aef565b60405180910390fd5b600360009054906101000a900473ffffffffffffffffffffffffffffffffffffffff1673ffffffffffffffffffffffffffffffffffffffff1663f26c72db83836040518363ffffffff1660e01b8152600401610fde929190612073565b600060405180830381600087803b158015610ff857600080fd5b505af115801561100c573d6000803e3d6000fd5b505050505050565b60008054906101000a900473ffffffffffffffffffffffffffffffffffffffff1673ffffffffffffffffffffffffffffffffffffffff163373ffffffffffffffffffffffffffffffffffffffff16146110a2576040517f08c379a000000000000000000000000000000000000000000000000000000000815260040161109990611aef565b60405180910390fd5b6001544210156110e7576040517f08c379a00000000000000000000000000000000000000000000000000000000081526004016110de90611d31565b60405180910390fd5b60025442111561112c576040517f08c379a000000000000000000000000000000000000000000000000000000000815260040161112390611d9d565b60405180910390fd5b603c8161113991906120a3565b6002600082825461114a91906120e5565b9250508190555050565b6060600360009054906101000a900473ffffffffffffffffffffffffffffffffffffffff1673ffffffffffffffffffffffffffffffffffffffff16632e6997fe6040518163ffffffff1660e01b8152600401600060405180830381865afa1580156111c3573d6000803e3d6000fd5b505050506040513d6000823e3d601f19601f820116820180604052508101906111ec9190612270565b905090565b6000604051905090565b600080fd5b600080fd5b6000819050919050565b61121881611205565b811461122357600080fd5b50565b6000813590506112358161120f565b92915050565b600060208284031215611251576112506111fb565b5b600061125f84828501611226565b91505092915050565b61127181611205565b82525050565b600060208201905061128c6000830184611268565b92915050565b600073ffffffffffffffffffffffffffffffffffffffff82169050919050565b60006112bd82611292565b9050919050565b6112cd816112b2565b81146112d857600080fd5b50565b6000813590506112ea816112c4565b92915050565b600060208284031215611306576113056111fb565b5b6000611314848285016112db565b91505092915050565b600081519050919050565b600082825260208201905092915050565b6000819050602082019050919050565b61135281611205565b82525050565b60006113648383611349565b60208301905092915050565b6000602082019050919050565b60006113888261131d565b6113928185611328565b935061139d83611339565b8060005b838110156113ce5781516113b58882611358565b97506113c083611370565b9250506001810190506113a1565b5085935050505092915050565b600060208201905081810360008301526113f5818461137d565b905092915050565b6000819050919050565b600061142261141d61141884611292565b6113fd565b611292565b9050919050565b600061143482611407565b9050919050565b600061144682611429565b9050919050565b6114568161143b565b82525050565b6000602082019050611471600083018461144d565b92915050565b60008115159050919050565b61148c81611477565b82525050565b60006020820190506114a76000830184611483565b92915050565b600081519050919050565b600082825260208201905092915050565b6000819050602082019050919050565b600081519050919050565b600082825260208201905092915050565b60005b838110156115135780820151818401526020810190506114f8565b60008484015250505050565b6000601f19601f8301169050919050565b600061153b826114d9565b61154581856114e4565b93506115558185602086016114f5565b61155e8161151f565b840191505092915050565b60006115758383611530565b905092915050565b6000602082019050919050565b6000611595826114ad565b61159f81856114b8565b9350836020820285016115b1856114c9565b8060005b858110156115ed57848403895281516115ce8582611569565b94506115d98361157d565b925060208a019950506001810190506115b5565b50829750879550505050505092915050565b60006060820190508181036000830152611619818661137d565b9050818103602083015261162d818561158a565b90508181036040830152611641818461137d565b9050949350505050565b600080fd5b600080fd5b7f4e487b7100000000000000000000000000000000000000000000000000000000600052604160045260246000fd5b61168d8261151f565b810181811067ffffffffffffffff821117156116ac576116ab611655565b5b80604052505050565b60006116bf6111f1565b90506116cb8282611684565b919050565b600067ffffffffffffffff8211156116eb576116ea611655565b5b6116f48261151f565b9050602081019050919050565b82818337600083830152505050565b600061172361171e846116d0565b6116b5565b90508281526020810184848401111561173f5761173e611650565b5b61174a848285611701565b509392505050565b600082601f8301126117675761176661164b565b5b8135611777848260208601611710565b91505092915050565b600060208284031215611796576117956111fb565b5b600082013567ffffffffffffffff8111156117b4576117b3611200565b5b6117c084828501611752565b91505092915050565b6117d2816112b2565b82525050565b60006020820190506117ed60008301846117c9565b92915050565b60006117fe82611429565b9050919050565b61180e816117f3565b82525050565b60006020820190506118296000830184611805565b92915050565b60008060408385031215611846576118456111fb565b5b600061185485828601611226565b925050602083013567ffffffffffffffff81111561187557611874611200565b5b61188185828601611752565b9150509250929050565b600081519050919050565b600082825260208201905092915050565b6000819050602082019050919050565b6118c081611477565b82525050565b600060408301600083015184820360008601526118e38282611530565b91505060208301516118f860208601826118b7565b508091505092915050565b600061190f83836118c6565b905092915050565b6000602082019050919050565b600061192f8261188b565b6119398185611896565b93508360208202850161194b856118a7565b8060005b8581101561198757848403895281516119688582611903565b945061197383611917565b925060208a0199505060018101905061194f565b50829750879550505050505092915050565b600060208201905081810360008301526119b38184611924565b905092915050565b600082825260208201905092915050565b7f566f74696e67206e6f7420616374697665000000000000000000000000000000600082015250565b6000611a026011836119bb565b9150611a0d826119cc565b602082019050919050565b60006020820190508181036000830152611a31816119f5565b9050919050565b6000604082019050611a4d6000830185611268565b611a5a60208301846117c9565b9392505050565b600081519050611a708161120f565b92915050565b600060208284031215611a8c57611a8b6111fb565b5b6000611a9a84828501611a61565b91505092915050565b7f4f6e6c79206f776e657200000000000000000000000000000000000000000000600082015250565b6000611ad9600a836119bb565b9150611ae482611aa3565b602082019050919050565b60006020820190508181036000830152611b0881611acc565b9050919050565b7f496e76616c6964206f776e657200000000000000000000000000000000000000600082015250565b6000611b45600d836119bb565b9150611b5082611b0f565b602082019050919050565b60006020820190508181036000830152611b7481611b38565b9050919050565b600067ffffffffffffffff821115611b9657611b95611655565b5b602082029050602081019050919050565b600080fd5b6000611bbf611bba84611b7b565b6116b5565b90508083825260208201905060208402830185811115611be257611be1611ba7565b5b835b81811015611c0b5780611bf78882611a61565b845260208401935050602081019050611be4565b5050509392505050565b600082601f830112611c2a57611c2961164b565b5b8151611c3a848260208601611bac565b91505092915050565b600060208284031215611c5957611c586111fb565b5b600082015167ffffffffffffffff811115611c7757611c76611200565b5b611c8384828501611c15565b91505092915050565b611c9581611477565b8114611ca057600080fd5b50565b600081519050611cb281611c8c565b92915050565b600060208284031215611cce57611ccd6111fb565b5b6000611cdc84828501611ca3565b91505092915050565b7f566f74696e6720686173206e6f74207374617274656400000000000000000000600082015250565b6000611d1b6016836119bb565b9150611d2682611ce5565b602082019050919050565b60006020820190508181036000830152611d4a81611d0e565b9050919050565b7f566f74696e6720616c726561647920656e646564000000000000000000000000600082015250565b6000611d876014836119bb565b9150611d9282611d51565b602082019050919050565b60006020820190508181036000830152611db681611d7a565b9050919050565b7f4e487b7100000000000000000000000000000000000000000000000000000000600052601160045260246000fd5b6000611df782611205565b9150611e0283611205565b9250828203905081811115611e1a57611e19611dbd565b5b92915050565b600067ffffffffffffffff821115611e3b57611e3a611655565b5b602082029050602081019050919050565b6000611e5f611e5a846116d0565b6116b5565b905082815260208101848484011115611e7b57611e7a611650565b5b611e868482856114f5565b509392505050565b600082601f830112611ea357611ea261164b565b5b8151611eb3848260208601611e4c565b91505092915050565b6000611ecf611eca84611e20565b6116b5565b90508083825260208201905060208402830185811115611ef257611ef1611ba7565b5b835b81811015611f3957805167ffffffffffffffff811115611f1757611f1661164b565b5b808601611f248982611e8e565b85526020850194505050602081019050611ef4565b5050509392505050565b600082601f830112611f5857611f5761164b565b5b8151611f68848260208601611ebc565b91505092915050565b600080600060608486031215611f8a57611f896111fb565b5b600084015167ffffffffffffffff811115611fa857611fa7611200565b5b611fb486828701611c15565b935050602084015167ffffffffffffffff811115611fd557611fd4611200565b5b611fe186828701611f43565b925050604084015167ffffffffffffffff81111561200257612001611200565b5b61200e86828701611c15565b9150509250925092565b6000612023826114d9565b61202d81856119bb565b935061203d8185602086016114f5565b6120468161151f565b840191505092915050565b6000602082019050818103600083015261206b8184612018565b905092915050565b60006040820190506120886000830185611268565b818103602083015261209a8184612018565b90509392505050565b60006120ae82611205565b91506120b983611205565b92508282026120c781611205565b915082820484148315176120de576120dd611dbd565b5b5092915050565b60006120f082611205565b91506120fb83611205565b925082820190508082111561211357612112611dbd565b5b92915050565b600067ffffffffffffffff82111561213457612133611655565b5b602082029050602081019050919050565b600080fd5b600080fd5b60006040828403121561216557612164612145565b5b61216f60406116b5565b9050600082015167ffffffffffffffff81111561218f5761218e61214a565b5b61219b84828501611e8e565b60008301525060206121af84828501611ca3565b60208301525092915050565b60006121ce6121c984612119565b6116b5565b905080838252602082019050602084028301858111156121f1576121f0611ba7565b5b835b8181101561223857805167ffffffffffffffff8111156122165761221561164b565b5b808601612223898261214f565b855260208501945050506020810190506121f3565b5050509392505050565b600082601f8301126122575761225661164b565b5b81516122678482602086016121bb565b91505092915050565b600060208284031215612286576122856111fb565b5b600082015167ffffffffffffffff8111156122a4576122a3611200565b5b6122b084828501612242565b9150509291505056fea2646970667358221220c45b903f15cf787b5ad58ed8a86be9bc7f0f29137e849e0c2b1870b41c2770b364736f6c634300081c00336080604052348015600f57600080fd5b5033600260006101000a81548173ffffffffffffffffffffffffffffffffffffffff021916908373ffffffffffffffffffffffffffffffffffffffff160217905550611a30806100606000396000f3fe608060405234801561001057600080fd5b50600436106100b45760003560e01c8063a1b1d3af11610071578063a1b1d3af146101a2578063a9a981a3146101be578063dd2e7ad0146101dc578063e13804a71461020c578063f26c72db1461023c578063f6d8f2cb14610258576100b4565b80632e6997fe146100b95780633477ee2e146100d757806335b8e82014610108578063439d4b8b14610138578063462e91ec146101685780638da5cb5b14610184575b600080fd5b6100c1610288565b6040516100ce9190610f43565b60405180910390f35b6100f160048036038101906100ec9190610faf565b610394565b6040516100ff929190611035565b60405180910390f35b610122600480360381019061011d9190610faf565b61045d565b60405161012f91906110a2565b60405180910390f35b610152600480360381019061014d9190610faf565b61058d565b60405161015f91906110c4565b60405180910390f35b610182600480360381019061017d9190611214565b61060f565b005b61018c61080d565b604051610199919061129e565b60405180910390f35b6101bc60048036038101906101b79190610faf565b610833565b005b6101c661094a565b6040516101d391906112c8565b60405180910390f35b6101f660048036038101906101f19190611214565b610956565b60405161020391906112c8565b60405180910390f35b61022660048036038101906102219190610faf565b610a4c565b60405161023391906112e3565b60405180910390f35b61025660048036038101906102519190611305565b610b4a565b005b610272600480360381019061026d9190611214565b610d4f565b60405161027f91906112c8565b60405180910390f35b60606000805480602002602001604051908101604052809291908181526020016000905b8282101561038b57838290600052602060002090600202016040518060400160405290816000820180546102df90611390565b80601f016020809104026020016040519081016040528092919081815260200182805461030b90611390565b80156103585780601f1061032d57610100808354040283529160200191610358565b820191906000526020600020905b81548152906001019060200180831161033b57829003601f168201915b505050505081526020016001820160009054906101000a900460ff161515151581525050815260200190600101906102ac565b50505050905090565b600081815481106103a457600080fd5b90600052602060002090600202016000915090508060000180546103c790611390565b80601f01602080910402602001604051908101604052809291908181526020018280546103f390611390565b80156104405780601f1061041557610100808354040283529160200191610440565b820191906000526020600020905b81548152906001019060200180831161042357829003601f168201915b5050505050908060010160009054906101000a900460ff16905082565b610465610d7d565b60008054905082106104ac576040517f08c379a00000000000000000000000000000000000000000000000000000000081526004016104a39061140d565b60405180910390fd5b600082815481106104c0576104bf61142d565b5b90600052602060002090600202016040518060400160405290816000820180546104e990611390565b80601f016020809104026020016040519081016040528092919081815260200182805461051590611390565b80156105625780601f1061053757610100808354040283529160200191610562565b820191906000526020600020905b81548152906001019060200180831161054557829003601f168201915b505050505081526020016001820160009054906101000a900460ff1615151515815250509050919050565b6000808054905082106105d5576040517f08c379a00000000000000000000000000000000000000000000000000000000081526004016105cc9061140d565b60405180910390fd5b600082815481106105e9576105e861142d565b5b906000526020600020906002020160010160009054906101000a900460ff169050919050565b600260009054906101000a900473ffffffffffffffffffffffffffffffffffffffff1673ffffffffffffffffffffffffffffffffffffffff163373ffffffffffffffffffffffffffffffffffffffff161461069f576040517f08c379a0000000000000000000000000000000000000000000000000000000008152600401610696906114a8565b60405180910390fd5b60006001826040516106b19190611504565b90815260200160405180910390205414801561071c575060008080549050148061071b57508080519060200120600080815481106106f2576106f161142d565b5b906000526020600020906002020160000160405161071091906115be565b604051809103902014155b5b61075b576040517f08c379a000000000000000000000000000000000000000000000000000000000815260040161075290611621565b60405180910390fd5b6000604051806040016040528083815260200160011515815250908060018154018082558091505060019003906000526020600020906002020160009091909190915060008201518160000190816107b391906117ed565b5060208201518160010160006101000a81548160ff021916908315150217905550505060016000805490506107e891906118ee565b6001826040516107f89190611504565b90815260200160405180910390208190555050565b600260009054906101000a900473ffffffffffffffffffffffffffffffffffffffff1681565b600260009054906101000a900473ffffffffffffffffffffffffffffffffffffffff1673ffffffffffffffffffffffffffffffffffffffff163373ffffffffffffffffffffffffffffffffffffffff16146108c3576040517f08c379a00000000000000000000000000000000000000000000000000000000081526004016108ba906114a8565b60405180910390fd5b600080549050811061090a576040517f08c379a00000000000000000000000000000000000000000000000000000000081526004016109019061140d565b60405180910390fd5b600080828154811061091f5761091e61142d565b5b906000526020600020906002020160010160006101000a81548160ff02191690831515021790555050565b60008080549050905090565b6000806001836040516109699190611504565b908152602001604051809103902054905060008054905081106109c1576040517f08c379a00000000000000000000000000000000000000000000000000000000081526004016109b89061196e565b60405180910390fd5b8280519060200120600082815481106109dd576109dc61142d565b5b90600052602060002090600202016000016040516109fb91906115be565b604051809103902014610a43576040517f08c379a0000000000000000000000000000000000000000000000000000000008152600401610a3a906119da565b60405180910390fd5b80915050919050565b60606000805490508210610a95576040517f08c379a0000000000000000000000000000000000000000000000000000000008152600401610a8c9061140d565b60405180910390fd5b60008281548110610aa957610aa861142d565b5b90600052602060002090600202016000018054610ac590611390565b80601f0160208091040260200160405190810160405280929190818152602001828054610af190611390565b8015610b3e5780601f10610b1357610100808354040283529160200191610b3e565b820191906000526020600020905b815481529060010190602001808311610b2157829003601f168201915b50505050509050919050565b600260009054906101000a900473ffffffffffffffffffffffffffffffffffffffff1673ffffffffffffffffffffffffffffffffffffffff163373ffffffffffffffffffffffffffffffffffffffff1614610bda576040517f08c379a0000000000000000000000000000000000000000000000000000000008152600401610bd1906114a8565b60405180910390fd5b6000805490508210610c21576040517f08c379a0000000000000000000000000000000000000000000000000000000008152600401610c189061140d565b60405180910390fd5b6000808381548110610c3657610c3561142d565b5b90600052602060002090600202016000018054610c5290611390565b80601f0160208091040260200160405190810160405280929190818152602001828054610c7e90611390565b8015610ccb5780601f10610ca057610100808354040283529160200191610ccb565b820191906000526020600020905b815481529060010190602001808311610cae57829003601f168201915b50505050509050600181604051610ce29190611504565b9081526020016040518091039020600090558160008481548110610d0957610d0861142d565b5b90600052602060002090600202016000019081610d2691906117ed565b5082600183604051610d389190611504565b908152602001604051809103902081905550505050565b6001818051602081018201805184825260208301602085012081835280955050505050506000915090505481565b6040518060400160405280606081526020016000151581525090565b600081519050919050565b600082825260208201905092915050565b6000819050602082019050919050565b600081519050919050565b600082825260208201905092915050565b60005b83811015610dff578082015181840152602081019050610de4565b60008484015250505050565b6000601f19601f8301169050919050565b6000610e2782610dc5565b610e318185610dd0565b9350610e41818560208601610de1565b610e4a81610e0b565b840191505092915050565b60008115159050919050565b610e6a81610e55565b82525050565b60006040830160008301518482036000860152610e8d8282610e1c565b9150506020830151610ea26020860182610e61565b508091505092915050565b6000610eb98383610e70565b905092915050565b6000602082019050919050565b6000610ed982610d99565b610ee38185610da4565b935083602082028501610ef585610db5565b8060005b85811015610f315784840389528151610f128582610ead565b9450610f1d83610ec1565b925060208a01995050600181019050610ef9565b50829750879550505050505092915050565b60006020820190508181036000830152610f5d8184610ece565b905092915050565b6000604051905090565b600080fd5b600080fd5b6000819050919050565b610f8c81610f79565b8114610f9757600080fd5b50565b600081359050610fa981610f83565b92915050565b600060208284031215610fc557610fc4610f6f565b5b6000610fd384828501610f9a565b91505092915050565b600082825260208201905092915050565b6000610ff882610dc5565b6110028185610fdc565b9350611012818560208601610de1565b61101b81610e0b565b840191505092915050565b61102f81610e55565b82525050565b6000604082019050818103600083015261104f8185610fed565b905061105e6020830184611026565b9392505050565b600060408301600083015184820360008601526110828282610e1c565b91505060208301516110976020860182610e61565b508091505092915050565b600060208201905081810360008301526110bc8184611065565b905092915050565b60006020820190506110d96000830184611026565b92915050565b600080fd5b600080fd5b7f4e487b7100000000000000000000000000000000000000000000000000000000600052604160045260246000fd5b61112182610e0b565b810181811067ffffffffffffffff821117156111405761113f6110e9565b5b80604052505050565b6000611153610f65565b905061115f8282611118565b919050565b600067ffffffffffffffff82111561117f5761117e6110e9565b5b61118882610e0b565b9050602081019050919050565b82818337600083830152505050565b60006111b76111b284611164565b611149565b9050828152602081018484840111156111d3576111d26110e4565b5b6111de848285611195565b509392505050565b600082601f8301126111fb576111fa6110df565b5b813561120b8482602086016111a4565b91505092915050565b60006020828403121561122a57611229610f6f565b5b600082013567ffffffffffffffff81111561124857611247610f74565b5b611254848285016111e6565b91505092915050565b600073ffffffffffffffffffffffffffffffffffffffff82169050919050565b60006112888261125d565b9050919050565b6112988161127d565b82525050565b60006020820190506112b3600083018461128f565b92915050565b6112c281610f79565b82525050565b60006020820190506112dd60008301846112b9565b92915050565b600060208201905081810360008301526112fd8184610fed565b905092915050565b6000806040838503121561131c5761131b610f6f565b5b600061132a85828601610f9a565b925050602083013567ffffffffffffffff81111561134b5761134a610f74565b5b611357858286016111e6565b9150509250929050565b7f4e487b7100000000000000000000000000000000000000000000000000000000600052602260045260246000fd5b600060028204905060018216806113a857607f821691505b6020821081036113bb576113ba611361565b5b50919050565b7f496e76616c696420494400000000000000000000000000000000000000000000600082015250565b60006113f7600a83610fdc565b9150611402826113c1565b602082019050919050565b60006020820190508181036000830152611426816113ea565b9050919050565b7f4e487b7100000000000000000000000000000000000000000000000000000000600052603260045260246000fd5b7f4f6e6c79206f776e657200000000000000000000000000000000000000000000600082015250565b6000611492600a83610fdc565b915061149d8261145c565b602082019050919050565b600060208201905081810360008301526114c181611485565b9050919050565b600081905092915050565b60006114de82610dc5565b6114e881856114c8565b93506114f8818560208601610de1565b80840191505092915050565b600061151082846114d3565b915081905092915050565b600081905092915050565b60008190508160005260206000209050919050565b6000815461154881611390565b611552818661151b565b9450600182166000811461156d5760018114611582576115b5565b60ff19831686528115158202860193506115b5565b61158b85611526565b60005b838110156115ad5781548189015260018201915060208101905061158e565b838801955050505b50505092915050565b60006115ca828461153b565b915081905092915050565b7f4e616d6520657869737473000000000000000000000000000000000000000000600082015250565b600061160b600b83610fdc565b9150611616826115d5565b602082019050919050565b6000602082019050818103600083015261163a816115fe565b9050919050565b60008190508160005260206000209050919050565b60006020601f8301049050919050565b600082821b905092915050565b6000600883026116a37fffffffffffffffffffffffffffffffffffffffffffffffffffffffffffffffff82611666565b6116ad8683611666565b95508019841693508086168417925050509392505050565b6000819050919050565b60006116ea6116e56116e084610f79565b6116c5565b610f79565b9050919050565b6000819050919050565b611704836116cf565b611718611710826116f1565b848454611673565b825550505050565b600090565b61172d611720565b6117388184846116fb565b505050565b5b8181101561175c57611751600082611725565b60018101905061173e565b5050565b601f8211156117a15761177281611641565b61177b84611656565b8101602085101561178a578190505b61179e61179685611656565b83018261173d565b50505b505050565b600082821c905092915050565b60006117c4600019846008026117a6565b1980831691505092915050565b60006117dd83836117b3565b9150826002028217905092915050565b6117f682610dc5565b67ffffffffffffffff81111561180f5761180e6110e9565b5b6118198254611390565b611824828285611760565b600060209050601f8311600181146118575760008415611845578287015190505b61184f85826117d1565b8655506118b7565b601f19841661186586611641565b60005b8281101561188d57848901518255600182019150602085019450602081019050611868565b868310156118aa57848901516118a6601f8916826117b3565b8355505b6001600288020188555050505b505050505050565b7f4e487b7100000000000000000000000000000000000000000000000000000000600052601160045260246000fd5b60006118f982610f79565b915061190483610f79565b925082820390508181111561191c5761191b6118bf565b5b92915050565b7f4e616d65206e6f7420666f756e64000000000000000000000000000000000000600082015250565b6000611958600e83610fdc565b915061196382611922565b602082019050919050565b600060208201905081810360008301526119878161194b565b9050919050565b7f4e616d65206d69736d6174636800000000000000000000000000000000000000600082015250565b60006119c4600d83610fdc565b91506119cf8261198e565b602082019050919050565b600060208201905081810360008301526119f3816119b7565b905091905056fea264697066735822122018808d2b62a54b722912d573bca94136fd8e4f11800b6d80f80b09da4444413b64736f6c634300081c0033608060405234801561001057600080fd5b50604051611a7e380380611a7e8339818101604052810190610032919061011d565b816000806101000a81548173ffffffffffffffffffffffffffffffffffffffff021916908373ffffffffffffffffffffffffffffffffffffffff16021790555080600460006101000a81548173ffffffffffffffffffffffffffffffffffffffff021916908373ffffffffffffffffffffffffffffffffffffffff160217905550505061015d565b600080fd5b600073ffffffffffffffffffffffffffffffffffffffff82169050919050565b60006100ea826100bf565b9050919050565b6100fa816100df565b811461010557600080fd5b50565b600081519050610117816100f1565b92915050565b60008060408385031215610134576101336100ba565b5b600061014285828601610108565b925050602061015385828601610108565b9150509250929050565b6119128061016c6000396000f3fe608060405234801561001057600080fd5b50600436106100a95760003560e01c80635f5300ff116100715780635f5300ff14610156578063793cf218146101745780639202825414610192578063a6a41f44146101c2578063c1fc006a146101e0578063ed252861146101fe576100a9565b806302d947ef146100ae57806309eef43e146100ca57806315d6af8f146100fa5780633c0476dd146101185780633dd079c014610138575b600080fd5b6100c860048036038101906100c39190610f4f565b61021e565b005b6100e460048036038101906100df9190610f8f565b6104b1565b6040516100f19190610fd7565b60405180910390f35b6101026104d1565b60405161010f91906110b0565b60405180910390f35b61012061070d565b60405161012f93929190611224565b60405180910390f35b6101406109cf565b60405161014d9190610fd7565b60405180910390f35b61015e6109de565b60405161016b919061127f565b60405180910390f35b61017c6109e4565b604051610189919061127f565b60405180910390f35b6101ac60048036038101906101a7919061129a565b6109ee565b6040516101b9919061127f565b60405180910390f35b6101ca610a06565b6040516101d79190611326565b60405180910390f35b6101e8610a2a565b6040516101f59190611350565b60405180910390f35b610206610a50565b60405161021593929190611224565b60405180910390f35b600460009054906101000a900473ffffffffffffffffffffffffffffffffffffffff1673ffffffffffffffffffffffffffffffffffffffff163373ffffffffffffffffffffffffffffffffffffffff16146102ae576040517f08c379a00000000000000000000000000000000000000000000000000000000081526004016102a5906113c8565b60405180910390fd5b60008054906101000a900473ffffffffffffffffffffffffffffffffffffffff1673ffffffffffffffffffffffffffffffffffffffff1663439d4b8b836040518263ffffffff1660e01b8152600401610307919061127f565b602060405180830381865afa158015610324573d6000803e3d6000fd5b505050506040513d601f19601f820116820180604052508101906103489190611414565b610387576040517f08c379a000000000000000000000000000000000000000000000000000000000815260040161037e9061148d565b60405180910390fd5b600260008273ffffffffffffffffffffffffffffffffffffffff1673ffffffffffffffffffffffffffffffffffffffff16815260200190815260200160002060009054906101000a900460ff1615610414576040517f08c379a000000000000000000000000000000000000000000000000000000000815260040161040b906114f9565b60405180910390fd5b60016000838152602001908152602001600020600081548092919061043890611548565b91905055506001600260008373ffffffffffffffffffffffffffffffffffffffff1673ffffffffffffffffffffffffffffffffffffffff16815260200190815260200160002060006101000a81548160ff021916908315150217905550600360008154809291906104a890611548565b91905055505050565b60026020528060005260406000206000915054906101000a900460ff1681565b60606104db610d39565b61053057600067ffffffffffffffff8111156104fa576104f9611590565b5b6040519080825280602002602001820160405280156105285781602001602082028036833780820191505090505b50905061070a565b60008060009054906101000a900473ffffffffffffffffffffffffffffffffffffffff1673ffffffffffffffffffffffffffffffffffffffff1663a9a981a36040518163ffffffff1660e01b8152600401602060405180830381865afa15801561059e573d6000803e3d6000fd5b505050506040513d601f19601f820116820180604052508101906105c291906115d4565b90506000805b8281101561060f57816001600083815260200190815260200160002054111561060257600160008281526020019081526020016000205491505b80806001019150506105c8565b506000805b83811015610652578260016000838152602001908152602001600020540361064557818061064190611548565b9250505b8080600101915050610614565b5060008167ffffffffffffffff81111561066f5761066e611590565b5b60405190808252806020026020018201604052801561069d5781602001602082028036833780820191505090505b5090506000805b8581101561070057846001600083815260200190815260200160002054036106f357808383806106d390611548565b9450815181106106e6576106e5611601565b5b6020026020010181815250505b80806001019150506106a4565b5081955050505050505b90565b606080606060008060009054906101000a900473ffffffffffffffffffffffffffffffffffffffff1673ffffffffffffffffffffffffffffffffffffffff1663a9a981a36040518163ffffffff1660e01b8152600401602060405180830381865afa158015610780573d6000803e3d6000fd5b505050506040513d601f19601f820116820180604052508101906107a491906115d4565b90508067ffffffffffffffff8111156107c0576107bf611590565b5b6040519080825280602002602001820160405280156107ee5781602001602082028036833780820191505090505b5093508067ffffffffffffffff81111561080b5761080a611590565b5b60405190808252806020026020018201604052801561083e57816020015b60608152602001906001900390816108295790505b5092508067ffffffffffffffff81111561085b5761085a611590565b5b6040519080825280602002602001820160405280156108895781602001602082028036833780820191505090505b50915060005b818110156109c857808582815181106108ab576108aa611601565b5b60200260200101818152505060008054906101000a900473ffffffffffffffffffffffffffffffffffffffff1673ffffffffffffffffffffffffffffffffffffffff1663e13804a7826040518263ffffffff1660e01b8152600401610910919061127f565b600060405180830381865afa15801561092d573d6000803e3d6000fd5b505050506040513d6000823e3d601f19601f820116820180604052508101906109569190611727565b84828151811061096957610968611601565b5b602002602001018190525061097c610d39565b61098757600061099c565b60016000828152602001908152602001600020545b8382815181106109af576109ae611601565b5b602002602001018181525050808060010191505061088f565b5050909192565b60006109d9610d39565b905090565b60035481565b6000600354905090565b60016020528060005260406000206000915090505481565b60008054906101000a900473ffffffffffffffffffffffffffffffffffffffff1681565b600460009054906101000a900473ffffffffffffffffffffffffffffffffffffffff1681565b606080606060008060009054906101000a900473ffffffffffffffffffffffffffffffffffffffff1673ffffffffffffffffffffffffffffffffffffffff1663a9a981a36040518163ffffffff1660e01b8152600401602060405180830381865afa158015610ac3573d6000803e3d6000fd5b505050506040513d601f19601f82011682018060405250810190610ae791906115d4565b90508067ffffffffffffffff811115610b0357610b02611590565b5b604051908082528060200260200182016040528015610b315781602001602082028036833780820191505090505b5093508067ffffffffffffffff811115610b4e57610b4d611590565b5b604051908082528060200260200182016040528015610b8157816020015b6060815260200190600190039081610b6c5790505b5092508067ffffffffffffffff811115610b9e57610b9d611590565b5b604051908082528060200260200182016040528015610bcc5781602001602082028036833780820191505090505b509150610bd7610d39565b1580610be557506000600354145b15610bf05750610d34565b60005b81811015610d315780858281518110610c0f57610c0e611601565b5b60200260200101818152505060008054906101000a900473ffffffffffffffffffffffffffffffffffffffff1673ffffffffffffffffffffffffffffffffffffffff1663e13804a7826040518263ffffffff1660e01b8152600401610c74919061127f565b600060405180830381865afa158015610c91573d6000803e3d6000fd5b505050506040513d6000823e3d601f19601f82011682018060405250810190610cba9190611727565b848281518110610ccd57610ccc611601565b5b602002602001018190525060035460646001600084815260200190815260200160002054610cfb9190611770565b610d0591906117e1565b838281518110610d1857610d17611601565b5b6020026020010181815250508080600101915050610bf3565b50505b909192565b6000806000600460009054906101000a900473ffffffffffffffffffffffffffffffffffffffff1673ffffffffffffffffffffffffffffffffffffffff166040516024016040516020818303038152906040527f3dd079c0000000000000000000000000000000000000000000000000000000007bffffffffffffffffffffffffffffffffffffffffffffffffffffffff19166020820180517bffffffffffffffffffffffffffffffffffffffffffffffffffffffff8381831617835250505050604051610e079190611859565b600060405180830381855afa9150503d8060008114610e42576040519150601f19603f3d011682016040523d82523d6000602084013e610e47565b606091505b509150915081610e8c576040517f08c379a0000000000000000000000000000000000000000000000000000000008152600401610e83906118bc565b60405180910390fd5b80806020019051810190610ea09190611414565b9250505090565b6000604051905090565b600080fd5b600080fd5b6000819050919050565b610ece81610ebb565b8114610ed957600080fd5b50565b600081359050610eeb81610ec5565b92915050565b600073ffffffffffffffffffffffffffffffffffffffff82169050919050565b6000610f1c82610ef1565b9050919050565b610f2c81610f11565b8114610f3757600080fd5b50565b600081359050610f4981610f23565b92915050565b60008060408385031215610f6657610f65610eb1565b5b6000610f7485828601610edc565b9250506020610f8585828601610f3a565b9150509250929050565b600060208284031215610fa557610fa4610eb1565b5b6000610fb384828501610f3a565b91505092915050565b60008115159050919050565b610fd181610fbc565b82525050565b6000602082019050610fec6000830184610fc8565b92915050565b600081519050919050565b600082825260208201905092915050565b6000819050602082019050919050565b61102781610ebb565b82525050565b6000611039838361101e565b60208301905092915050565b6000602082019050919050565b600061105d82610ff2565b6110678185610ffd565b93506110728361100e565b8060005b838110156110a357815161108a888261102d565b975061109583611045565b925050600181019050611076565b5085935050505092915050565b600060208201905081810360008301526110ca8184611052565b905092915050565b600081519050919050565b600082825260208201905092915050565b6000819050602082019050919050565b600081519050919050565b600082825260208201905092915050565b60005b8381101561113857808201518184015260208101905061111d565b60008484015250505050565b6000601f19601f8301169050919050565b6000611160826110fe565b61116a8185611109565b935061117a81856020860161111a565b61118381611144565b840191505092915050565b600061119a8383611155565b905092915050565b6000602082019050919050565b60006111ba826110d2565b6111c481856110dd565b9350836020820285016111d6856110ee565b8060005b8581101561121257848403895281516111f3858261118e565b94506111fe836111a2565b925060208a019950506001810190506111da565b50829750879550505050505092915050565b6000606082019050818103600083015261123e8186611052565b9050818103602083015261125281856111af565b905081810360408301526112668184611052565b9050949350505050565b61127981610ebb565b82525050565b60006020820190506112946000830184611270565b92915050565b6000602082840312156112b0576112af610eb1565b5b60006112be84828501610edc565b91505092915050565b6000819050919050565b60006112ec6112e76112e284610ef1565b6112c7565b610ef1565b9050919050565b60006112fe826112d1565b9050919050565b6000611310826112f3565b9050919050565b61132081611305565b82525050565b600060208201905061133b6000830184611317565b92915050565b61134a81610f11565b82525050565b60006020820190506113656000830184611341565b92915050565b600082825260208201905092915050565b7f4f6e6c79206d61696e20636f6e74726163742063616e2063616c6c2e00000000600082015250565b60006113b2601c8361136b565b91506113bd8261137c565b602082019050919050565b600060208201905081810360008301526113e1816113a5565b9050919050565b6113f181610fbc565b81146113fc57600080fd5b50565b60008151905061140e816113e8565b92915050565b60006020828403121561142a57611429610eb1565b5b6000611438848285016113ff565b91505092915050565b7f496e76616c69642063616e6469646174652e0000000000000000000000000000600082015250565b600061147760128361136b565b915061148282611441565b602082019050919050565b600060208201905081810360008301526114a68161146a565b9050919050565b7f416c726561647920766f7465642e000000000000000000000000000000000000600082015250565b60006114e3600e8361136b565b91506114ee826114ad565b602082019050919050565b60006020820190508181036000830152611512816114d6565b9050919050565b7f4e487b7100000000000000000000000000000000000000000000000000000000600052601160045260246000fd5b600061155382610ebb565b91507fffffffffffffffffffffffffffffffffffffffffffffffffffffffffffffffff820361158557611584611519565b5b600182019050919050565b7f4e487b7100000000000000000000000000000000000000000000000000000000600052604160045260246000fd5b6000815190506115ce81610ec5565b92915050565b6000602082840312156115ea576115e9610eb1565b5b60006115f8848285016115bf565b91505092915050565b7f4e487b7100000000000000000000000000000000000000000000000000000000600052603260045260246000fd5b600080fd5b600080fd5b61164382611144565b810181811067ffffffffffffffff8211171561166257611661611590565b5b80604052505050565b6000611675610ea7565b9050611681828261163a565b919050565b600067ffffffffffffffff8211156116a1576116a0611590565b5b6116aa82611144565b9050602081019050919050565b60006116ca6116c584611686565b61166b565b9050828152602081018484840111156116e6576116e5611635565b5b6116f184828561111a565b509392505050565b600082601f83011261170e5761170d611630565b5b815161171e8482602086016116b7565b91505092915050565b60006020828403121561173d5761173c610eb1565b5b600082015167ffffffffffffffff81111561175b5761175a610eb6565b5b611767848285016116f9565b91505092915050565b600061177b82610ebb565b915061178683610ebb565b925082820261179481610ebb565b915082820484148315176117ab576117aa611519565b5b5092915050565b7f4e487b7100000000000000000000000000000000000000000000000000000000600052601260045260246000fd5b60006117ec82610ebb565b91506117f783610ebb565b925082611807576118066117b2565b5b828204905092915050565b600081519050919050565b600081905092915050565b600061183382611812565b61183d818561181d565b935061184d81856020860161111a565b80840191505092915050565b60006118658284611828565b915081905092915050565b7f566f74696e672073746174757320636865636b206661696c65642e0000000000600082015250565b60006118a6601b8361136b565b91506118b182611870565b602082019050919050565b600060208201905081810360008301526118d581611899565b905091905056fea2646970667358221220d62dae76d21d406d3592dc4c9782eedc0a4ff806c4e4e3e5cfdbb39d7d70d9ac64736f6c634300081c0033608060405234801561001057600080fd5b50604051611709380380611709833981810160405281019061003291906100db565b806000806101000a81548173ffffffffffffffffffffffffffffffffffffffff021916908373ffffffffffffffffffffffffffffffffffffffff16021790555050610108565b600080fd5b600073ffffffffffffffffffffffffffffffffffffffff82169050919050565b60006100a88261007d565b9050919050565b6100b88161009d565b81146100c357600080fd5b50565b6000815190506100d5816100af565b92915050565b6000602082840312156100f1576100f0610078565b5b60006100ff848285016100c6565b91505092915050565b6115f2806101176000396000f3fe608060405234801561001057600080fd5b506004361061009e5760003560e01c80635f5300ff116100665780635f5300ff1461014b578063793cf218146101695780639202825414610187578063a6a41f44146101b7578063ed252861146101d55761009e565b806302d947ef146100a357806309eef43e146100bf57806315d6af8f146100ef5780633c0476dd1461010d5780633dd079c01461012d575b600080fd5b6100bd60048036038101906100b89190610d8f565b6101f5565b005b6100d960048036038101906100d49190610dcf565b6103f8565b6040516100e69190610e17565b60405180910390f35b6100f7610418565b6040516101049190610ef0565b60405180910390f35b610115610707565b60405161012493929190611064565b60405180910390f35b6101356109b5565b6040516101429190610e17565b60405180910390f35b6101536109be565b60405161016091906110bf565b60405180910390f35b6101716109c4565b60405161017e91906110bf565b60405180910390f35b6101a1600480360381019061019c91906110da565b6109ce565b6040516101ae91906110bf565b60405180910390f35b6101bf6109e6565b6040516101cc9190611166565b60405180910390f35b6101dd610a0a565b6040516101ec93929190611064565b60405180910390f35b60008054906101000a900473ffffffffffffffffffffffffffffffffffffffff1673ffffffffffffffffffffffffffffffffffffffff1663439d4b8b836040518263ffffffff1660e01b815260040161024e91906110bf565b602060405180830381865afa15801561026b573d6000803e3d6000fd5b505050506040513d601f19601f8201168201806040525081019061028f91906111ad565b6102ce576040517f08c379a00000000000000000000000000000000000000000000000000000000081526004016102c590611237565b60405180910390fd5b600260008273ffffffffffffffffffffffffffffffffffffffff1673ffffffffffffffffffffffffffffffffffffffff16815260200190815260200160002060009054906101000a900460ff161561035b576040517f08c379a0000000000000000000000000000000000000000000000000000000008152600401610352906112a3565b60405180910390fd5b60016000838152602001908152602001600020600081548092919061037f906112f2565b91905055506001600260008373ffffffffffffffffffffffffffffffffffffffff1673ffffffffffffffffffffffffffffffffffffffff16815260200190815260200160002060006101000a81548160ff021916908315150217905550600360008154809291906103ef906112f2565b91905055505050565b60026020528060005260406000206000915054906101000a900460ff1681565b606060008060009054906101000a900473ffffffffffffffffffffffffffffffffffffffff1673ffffffffffffffffffffffffffffffffffffffff1663a9a981a36040518163ffffffff1660e01b8152600401602060405180830381865afa158015610488573d6000803e3d6000fd5b505050506040513d601f19601f820116820180604052508101906104ac919061134f565b905060008060005b838110156105ad5760008054906101000a900473ffffffffffffffffffffffffffffffffffffffff1673ffffffffffffffffffffffffffffffffffffffff1663439d4b8b826040518263ffffffff1660e01b815260040161051591906110bf565b602060405180830381865afa158015610532573d6000803e3d6000fd5b505050506040513d601f19601f8201168201806040525081019061055691906111ad565b156105a05760006001600083815260200190815260200160002054905083811115610587578093506001925061059e565b83810361059d578280610599906112f2565b9350505b5b505b80806001019150506104b4565b5060008167ffffffffffffffff8111156105ca576105c961137c565b5b6040519080825280602002602001820160405280156105f85781602001602082028036833780820191505090505b5090506000805b858110156106fb5760008054906101000a900473ffffffffffffffffffffffffffffffffffffffff1673ffffffffffffffffffffffffffffffffffffffff1663439d4b8b826040518263ffffffff1660e01b815260040161066091906110bf565b602060405180830381865afa15801561067d573d6000803e3d6000fd5b505050506040513d601f19601f820116820180604052508101906106a191906111ad565b156106ee57846001600083815260200190815260200160002054036106ed57808383806106cd906112f2565b9450815181106106e0576106df6113ab565b5b6020026020010181815250505b5b80806001019150506105ff565b50819550505050505090565b606080606060008060009054906101000a900473ffffffffffffffffffffffffffffffffffffffff1673ffffffffffffffffffffffffffffffffffffffff1663a9a981a36040518163ffffffff1660e01b8152600401602060405180830381865afa15801561077a573d6000803e3d6000fd5b505050506040513d601f19601f8201168201806040525081019061079e919061134f565b90508067ffffffffffffffff8111156107ba576107b961137c565b5b6040519080825280602002602001820160405280156107e85781602001602082028036833780820191505090505b5093508067ffffffffffffffff8111156108055761080461137c565b5b60405190808252806020026020018201604052801561083857816020015b60608152602001906001900390816108235790505b5092508067ffffffffffffffff8111156108555761085461137c565b5b6040519080825280602002602001820160405280156108835781602001602082028036833780820191505090505b50915060005b818110156109ae57808582815181106108a5576108a46113ab565b5b60200260200101818152505060008054906101000a900473ffffffffffffffffffffffffffffffffffffffff1673ffffffffffffffffffffffffffffffffffffffff1663e13804a7826040518263ffffffff1660e01b815260040161090a91906110bf565b600060405180830381865afa158015610927573d6000803e3d6000fd5b505050506040513d6000823e3d601f19601f8201168201806040525081019061095091906114d1565b848281518110610963576109626113ab565b5b60200260200101819052506001600082815260200190815260200160002054838281518110610995576109946113ab565b5b6020026020010181815250508080600101915050610889565b5050909192565b60006001905090565b60035481565b6000600354905090565b60016020528060005260406000206000915090505481565b60008054906101000a900473ffffffffffffffffffffffffffffffffffffffff1681565b606080606060008060009054906101000a900473ffffffffffffffffffffffffffffffffffffffff1673ffffffffffffffffffffffffffffffffffffffff1663a9a981a36040518163ffffffff1660e01b8152600401602060405180830381865afa158015610a7d573d6000803e3d6000fd5b505050506040513d601f19601f82011682018060405250810190610aa1919061134f565b9050600060035490508167ffffffffffffffff811115610ac457610ac361137c565b5b604051908082528060200260200182016040528015610af25781602001602082028036833780820191505090505b5094508167ffffffffffffffff811115610b0f57610b0e61137c565b5b604051908082528060200260200182016040528015610b4257816020015b6060815260200190600190039081610b2d5790505b5093508167ffffffffffffffff811115610b5f57610b5e61137c565b5b604051908082528060200260200182016040528015610b8d5781602001602082028036833780820191505090505b50925060005b82811015610cdf5780868281518110610baf57610bae6113ab565b5b60200260200101818152505060008054906101000a900473ffffffffffffffffffffffffffffffffffffffff1673ffffffffffffffffffffffffffffffffffffffff1663e13804a7826040518263ffffffff1660e01b8152600401610c1491906110bf565b600060405180830381865afa158015610c31573d6000803e3d6000fd5b505050506040513d6000823e3d601f19601f82011682018060405250810190610c5a91906114d1565b858281518110610c6d57610c6c6113ab565b5b602002602001018190525060008214610cb0578160646001600084815260200190815260200160002054610ca1919061151a565b610cab919061158b565b610cb3565b60005b848281518110610cc657610cc56113ab565b5b6020026020010181815250508080600101915050610b93565b505050909192565b6000604051905090565b600080fd5b600080fd5b6000819050919050565b610d0e81610cfb565b8114610d1957600080fd5b50565b600081359050610d2b81610d05565b92915050565b600073ffffffffffffffffffffffffffffffffffffffff82169050919050565b6000610d5c82610d31565b9050919050565b610d6c81610d51565b8114610d7757600080fd5b50565b600081359050610d8981610d63565b92915050565b60008060408385031215610da657610da5610cf1565b5b6000610db485828601610d1c565b9250506020610dc585828601610d7a565b9150509250929050565b600060208284031215610de557610de4610cf1565b5b6000610df384828501610d7a565b91505092915050565b60008115159050919050565b610e1181610dfc565b82525050565b6000602082019050610e2c6000830184610e08565b92915050565b600081519050919050565b600082825260208201905092915050565b6000819050602082019050919050565b610e6781610cfb565b82525050565b6000610e798383610e5e565b60208301905092915050565b6000602082019050919050565b6000610e9d82610e32565b610ea78185610e3d565b9350610eb283610e4e565b8060005b83811015610ee3578151610eca8882610e6d565b9750610ed583610e85565b925050600181019050610eb6565b5085935050505092915050565b60006020820190508181036000830152610f0a8184610e92565b905092915050565b600081519050919050565b600082825260208201905092915050565b6000819050602082019050919050565b600081519050919050565b600082825260208201905092915050565b60005b83811015610f78578082015181840152602081019050610f5d565b60008484015250505050565b6000601f19601f8301169050919050565b6000610fa082610f3e565b610faa8185610f49565b9350610fba818560208601610f5a565b610fc381610f84565b840191505092915050565b6000610fda8383610f95565b905092915050565b6000602082019050919050565b6000610ffa82610f12565b6110048185610f1d565b93508360208202850161101685610f2e565b8060005b8581101561105257848403895281516110338582610fce565b945061103e83610fe2565b925060208a0199505060018101905061101a565b50829750879550505050505092915050565b6000606082019050818103600083015261107e8186610e92565b905081810360208301526110928185610fef565b905081810360408301526110a68184610e92565b9050949350505050565b6110b981610cfb565b82525050565b60006020820190506110d460008301846110b0565b92915050565b6000602082840312156110f0576110ef610cf1565b5b60006110fe84828501610d1c565b91505092915050565b6000819050919050565b600061112c61112761112284610d31565b611107565b610d31565b9050919050565b600061113e82611111565b9050919050565b600061115082611133565b9050919050565b61116081611145565b82525050565b600060208201905061117b6000830184611157565b92915050565b61118a81610dfc565b811461119557600080fd5b50565b6000815190506111a781611181565b92915050565b6000602082840312156111c3576111c2610cf1565b5b60006111d184828501611198565b91505092915050565b600082825260208201905092915050565b7f43616e646964617465206e6f7420616374697665000000000000000000000000600082015250565b60006112216014836111da565b915061122c826111eb565b602082019050919050565b6000602082019050818103600083015261125081611214565b9050919050565b7f416c726561647920766f74656400000000000000000000000000000000000000600082015250565b600061128d600d836111da565b915061129882611257565b602082019050919050565b600060208201905081810360008301526112bc81611280565b9050919050565b7f4e487b7100000000000000000000000000000000000000000000000000000000600052601160045260246000fd5b60006112fd82610cfb565b91507fffffffffffffffffffffffffffffffffffffffffffffffffffffffffffffffff820361132f5761132e6112c3565b5b600182019050919050565b60008151905061134981610d05565b92915050565b60006020828403121561136557611364610cf1565b5b60006113738482850161133a565b91505092915050565b7f4e487b7100000000000000000000000000000000000000000000000000000000600052604160045260246000fd5b7f4e487b7100000000000000000000000000000000000000000000000000000000600052603260045260246000fd5b600080fd5b600080fd5b6113ed82610f84565b810181811067ffffffffffffffff8211171561140c5761140b61137c565b5b80604052505050565b600061141f610ce7565b905061142b82826113e4565b919050565b600067ffffffffffffffff82111561144b5761144a61137c565b5b61145482610f84565b9050602081019050919050565b600061147461146f84611430565b611415565b9050828152602081018484840111156114905761148f6113df565b5b61149b848285610f5a565b509392505050565b600082601f8301126114b8576114b76113da565b5b81516114c8848260208601611461565b91505092915050565b6000602082840312156114e7576114e6610cf1565b5b600082015167ffffffffffffffff81111561150557611504610cf6565b5b611511848285016114a3565b91505092915050565b600061152582610cfb565b915061153083610cfb565b925082820261153e81610cfb565b91508282048414831517611555576115546112c3565b5b5092915050565b7f4e487b7100000000000000000000000000000000000000000000000000000000600052601260045260246000fd5b600061159682610cfb565b91506115a183610cfb565b9250826115b1576115b061155c565b5b82820490509291505056fea26469706673582212207fcabea66e58860a40f80cf0608933902b7e2b323083d18470ccba596ed9da1d64736f6c634300081c0033",
  "linkReferences": {},
  "deployedLinkReferences": {}
}