{
  "_format": "hh-sol-artifact-1",
  "contractName": "VotingAnonymous",
  "sourceName": "contracts/logic/VotingAnonymous.sol",
  "abi": [
    {
      "inputs": [
        {
          "internalType": "address",
          "name": "candidateManagerAddress",
          "type": "address"
        },
        {
          "internalType": "address",
          "name": "votingContractAddress",
          "type": "address"
        }
      ],
      "stateMutability": "nonpayable",
      "type": "constructor"
    },
    {
      "inputs": [],
      "name": "candidateManager",
      "outputs": [
        {
          "internalType": "contract CandidateManager",
          "name": "",
          "type": "address"
        }
      ],
      "stateMutability": "view",
      "type": "function"
    },
    {
      "inputs": [],
      "name": "getTotalVoters",
      "outputs": [
        {
          "internalType": "uint256",
          "name": "",
          "type": "uint256"
        }
      ],
      "stateMutability": "view",
      "type": "function"
    },
    {
      "inputs": [],
      "name": "getVotePercentages",
      "outputs": [
        {
          "internalType": "uint256[]",
          "name": "ids",
          "type": "uint256[]"
        },
        {
          "internalType": "string[]",
          "name": "names",
          "type": "string[]"
        },
        {
          "internalType": "uint256[]",
          "name": "percentages",
          "type": "uint256[]"
        }
      ],
      "stateMutability": "view",
      "type": "function"
    },
    {
      "inputs": [],
      "name": "getVotesBreakdown",
      "outputs": [
        {
          "internalType": "uint256[]",
          "name": "ids",
          "type": "uint256[]"
        },
        {
          "internalType": "string[]",
          "name": "names",
          "type": "string[]"
        },
        {
          "internalType": "uint256[]",
          "name": "votes",
          "type": "uint256[]"
        }
      ],
      "stateMutability": "view",
      "type": "function"
    },
    {
      "inputs": [
        {
          "internalType": "address",
          "name": "",
          "type": "address"
        }
      ],
      "name": "hasVoted",
      "outputs": [
        {
          "internalType": "bool",
          "name": "",
          "type": "bool"
        }
      ],
      "stateMutability": "view",
      "type": "function"
    },
    {
      "inputs": [],
      "name": "hasVotingEnded",
      "outputs": [
        {
          "internalType": "bool",
          "name": "",
          "type": "bool"
        }
      ],
      "stateMutability": "view",
      "type": "function"
    },
    {
      "inputs": [],
      "name": "totalVoters",
      "outputs": [
        {
          "internalType": "uint256",
          "name": "",
          "type": "uint256"
        }
      ],
      "stateMutability": "view",
      "type": "function"
    },
    {
      "inputs": [
        {
          "internalType": "uint256",
          "name": "candidateId",
          "type": "uint256"
        },
        {
          "internalType": "address",
          "name": "sender",
          "type": "address"
        }
      ],
      "name": "vote",
      "outputs": [],
      "stateMutability": "nonpayable",
      "type": "function"
    },
    {
      "inputs": [
        {
          "internalType": "uint256",
          "name": "",
          "type": "uint256"
        }
      ],
      "name": "votesReceivedById",
      "outputs": [
        {
          "internalType": "uint256",
          "name": "",
          "type": "uint256"
        }
      ],
      "stateMutability": "view",
      "type": "function"
    },
    {
      "inputs": [],
      "name": "votingContract",
      "outputs": [
        {
          "internalType": "address",
          "name": "",
          "type": "address"
        }
      ],
      "stateMutability": "view",
      "type": "function"
    },
    {
      "inputs": [],
      "name": "winnerList",
      "outputs": [
        {
          "internalType": "uint256[]",
          "name": "",
          "type": "uint256[]"
        }
      ],
      "stateMutability": "view",
      "type": "function"
    }
  ],
  "bytecode": "0x608060405234801561001057600080fd5b50604051611a7e380380611a7e8339818101604052810190610032919061011d565b816000806101000a81548173ffffffffffffffffffffffffffffffffffffffff021916908373ffffffffffffffffffffffffffffffffffffffff16021790555080600460006101000a81548173ffffffffffffffffffffffffffffffffffffffff021916908373ffffffffffffffffffffffffffffffffffffffff160217905550505061015d565b600080fd5b600073ffffffffffffffffffffffffffffffffffffffff82169050919050565b60006100ea826100bf565b9050919050565b6100fa816100df565b811461010557600080fd5b50565b600081519050610117816100f1565b92915050565b60008060408385031215610134576101336100ba565b5b600061014285828601610108565b925050602061015385828601610108565b9150509250929050565b6119128061016c6000396000f3fe608060405234801561001057600080fd5b50600436106100a95760003560e01c80635f5300ff116100715780635f5300ff14610156578063793cf218146101745780639202825414610192578063a6a41f44146101c2578063c1fc006a146101e0578063ed252861146101fe576100a9565b806302d947ef146100ae57806309eef43e146100ca57806315d6af8f146100fa5780633c0476dd146101185780633dd079c014610138575b600080fd5b6100c860048036038101906100c39190610f4f565b61021e565b005b6100e460048036038101906100df9190610f8f565b6104b1565b6040516100f19190610fd7565b60405180910390f35b6101026104d1565b60405161010f91906110b0565b60405180910390f35b61012061070d565b60405161012f93929190611224565b60405180910390f35b6101406109cf565b60405161014d9190610fd7565b60405180910390f35b61015e6109de565b60405161016b919061127f565b60405180910390f35b61017c6109e4565b604051610189919061127f565b60405180910390f35b6101ac60048036038101906101a7919061129a565b6109ee565b6040516101b9919061127f565b60405180910390f35b6101ca610a06565b6040516101d79190611326565b60405180910390f35b6101e8610a2a565b6040516101f59190611350565b60405180910390f35b610206610a50565b60405161021593929190611224565b60405180910390f35b600460009054906101000a900473ffffffffffffffffffffffffffffffffffffffff1673ffffffffffffffffffffffffffffffffffffffff163373ffffffffffffffffffffffffffffffffffffffff16146102ae576040517f08c379a00000000000000000000000000000000000000000000000000000000081526004016102a5906113c8565b60405180910390fd5b60008054906101000a900473ffffffffffffffffffffffffffffffffffffffff1673ffffffffffffffffffffffffffffffffffffffff1663439d4b8b836040518263ffffffff1660e01b8152600401610307919061127f565b602060405180830381865afa158015610324573d6000803e3d6000fd5b505050506040513d601f19601f820116820180604052508101906103489190611414565b610387576040517f08c379a000000000000000000000000000000000000000000000000000000000815260040161037e9061148d565b60405180910390fd5b600260008273ffffffffffffffffffffffffffffffffffffffff1673ffffffffffffffffffffffffffffffffffffffff16815260200190815260200160002060009054906101000a900460ff1615610414576040517f08c379a000000000000000000000000000000000000000000000000000000000815260040161040b906114f9565b60405180910390fd5b60016000838152602001908152602001600020600081548092919061043890611548565b91905055506001600260008373ffffffffffffffffffffffffffffffffffffffff1673ffffffffffffffffffffffffffffffffffffffff16815260200190815260200160002060006101000a81548160ff021916908315150217905550600360008154809291906104a890611548565b91905055505050565b60026020528060005260406000206000915054906101000a900460ff1681565b60606104db610d39565b61053057600067ffffffffffffffff8111156104fa576104f9611590565b5b6040519080825280602002602001820160405280156105285781602001602082028036833780820191505090505b50905061070a565b60008060009054906101000a900473ffffffffffffffffffffffffffffffffffffffff1673ffffffffffffffffffffffffffffffffffffffff1663a9a981a36040518163ffffffff1660e01b8152600401602060405180830381865afa15801561059e573d6000803e3d6000fd5b505050506040513d601f19601f820116820180604052508101906105c291906115d4565b90506000805b8281101561060f57816001600083815260200190815260200160002054111561060257600160008281526020019081526020016000205491505b80806001019150506105c8565b506000805b83811015610652578260016000838152602001908152602001600020540361064557818061064190611548565b9250505b8080600101915050610614565b5060008167ffffffffffffffff81111561066f5761066e611590565b5b60405190808252806020026020018201604052801561069d5781602001602082028036833780820191505090505b5090506000805b8581101561070057846001600083815260200190815260200160002054036106f357808383806106d390611548565b9450815181106106e6576106e5611601565b5b6020026020010181815250505b80806001019150506106a4565b5081955050505050505b90565b606080606060008060009054906101000a900473ffffffffffffffffffffffffffffffffffffffff1673ffffffffffffffffffffffffffffffffffffffff1663a9a981a36040518163ffffffff1660e01b8152600401602060405180830381865afa158015610780573d6000803e3d6000fd5b505050506040513d601f19601f820116820180604052508101906107a491906115d4565b90508067ffffffffffffffff8111156107c0576107bf611590565b5b6040519080825280602002602001820160405280156107ee5781602001602082028036833780820191505090505b5093508067ffffffffffffffff81111561080b5761080a611590565b5b60405190808252806020026020018201604052801561083e57816020015b60608152602001906001900390816108295790505b5092508067ffffffffffffffff81111561085b5761085a611590565b5b6040519080825280602002602001820160405280156108895781602001602082028036833780820191505090505b50915060005b818110156109c857808582815181106108ab576108aa611601565b5b60200260200101818152505060008054906101000a900473ffffffffffffffffffffffffffffffffffffffff1673ffffffffffffffffffffffffffffffffffffffff1663e13804a7826040518263ffffffff1660e01b8152600401610910919061127f565b600060405180830381865afa15801561092d573d6000803e3d6000fd5b505050506040513d6000823e3d601f19601f820116820180604052508101906109569190611727565b84828151811061096957610968611601565b5b602002602001018190525061097c610d39565b61098757600061099c565b60016000828152602001908152602001600020545b8382815181106109af576109ae611601565b5b602002602001018181525050808060010191505061088f565b5050909192565b60006109d9610d39565b905090565b60035481565b6000600354905090565b60016020528060005260406000206000915090505481565b60008054906101000a900473ffffffffffffffffffffffffffffffffffffffff1681565b600460009054906101000a900473ffffffffffffffffffffffffffffffffffffffff1681565b606080606060008060009054906101000a900473ffffffffffffffffffffffffffffffffffffffff1673ffffffffffffffffffffffffffffffffffffffff1663a9a981a36040518163ffffffff1660e01b8152600401602060405180830381865afa158015610ac3573d6000803e3d6000fd5b505050506040513d601f19601f82011682018060405250810190610ae791906115d4565b90508067ffffffffffffffff811115610b0357610b02611590565b5b604051908082528060200260200182016040528015610b315781602001602082028036833780820191505090505b5093508067ffffffffffffffff811115610b4e57610b4d611590565b5b604051908082528060200260200182016040528015610b8157816020015b6060815260200190600190039081610b6c5790505b5092508067ffffffffffffffff811115610b9e57610b9d611590565b5b604051908082528060200260200182016040528015610bcc5781602001602082028036833780820191505090505b509150610bd7610d39565b1580610be557506000600354145b15610bf05750610d34565b60005b81811015610d315780858281518110610c0f57610c0e611601565b5b60200260200101818152505060008054906101000a900473ffffffffffffffffffffffffffffffffffffffff1673ffffffffffffffffffffffffffffffffffffffff1663e13804a7826040518263ffffffff1660e01b8152600401610c74919061127f565b600060405180830381865afa158015610c91573d6000803e3d6000fd5b505050506040513d6000823e3d601f19601f82011682018060405250810190610cba9190611727565b848281518110610ccd57610ccc611601565b5b602002602001018190525060035460646001600084815260200190815260200160002054610cfb9190611770565b610d0591906117e1565b838281518110610d1857610d17611601565b5b6020026020010181815250508080600101915050610bf3565b50505b909192565b6000806000600460009054906101000a900473ffffffffffffffffffffffffffffffffffffffff1673ffffffffffffffffffffffffffffffffffffffff166040516024016040516020818303038152906040527f3dd079c0000000000000000000000000000000000000000000000000000000007bffffffffffffffffffffffffffffffffffffffffffffffffffffffff19166020820180517bffffffffffffffffffffffffffffffffffffffffffffffffffffffff8381831617835250505050604051610e079190611859565b600060405180830381855afa9150503d8060008114610e42576040519150601f19603f3d011682016040523d82523d6000602084013e610e47565b606091505b509150915081610e8c576040517f08c379a0000000000000000000000000000000000000000000000000000000008152600401610e83906118bc565b60405180910390fd5b80806020019051810190610ea09190611414565b9250505090565b6000604051905090565b600080fd5b600080fd5b6000819050919050565b610ece81610ebb565b8114610ed957600080fd5b50565b600081359050610eeb81610ec5565b92915050565b600073ffffffffffffffffffffffffffffffffffffffff82169050919050565b6000610f1c82610ef1565b9050919050565b610f2c81610f11565b8114610f3757600080fd5b50565b600081359050610f4981610f23565b92915050565b60008060408385031215610f6657610f65610eb1565b5b6000610f7485828601610edc565b9250506020610f8585828601610f3a565b9150509250929050565b600060208284031215610fa557610fa4610eb1565b5b6000610fb384828501610f3a565b91505092915050565b60008115159050919050565b610fd181610fbc565b82525050565b6000602082019050610fec6000830184610fc8565b92915050565b600081519050919050565b600082825260208201905092915050565b6000819050602082019050919050565b61102781610ebb565b82525050565b6000611039838361101e565b60208301905092915050565b6000602082019050919050565b600061105d82610ff2565b6110678185610ffd565b93506110728361100e565b8060005b838110156110a357815161108a888261102d565b975061109583611045565b925050600181019050611076565b5085935050505092915050565b600060208201905081810360008301526110ca8184611052565b905092915050565b600081519050919050565b600082825260208201905092915050565b6000819050602082019050919050565b600081519050919050565b600082825260208201905092915050565b60005b8381101561113857808201518184015260208101905061111d565b60008484015250505050565b6000601f19601f8301169050919050565b6000611160826110fe565b61116a8185611109565b935061117a81856020860161111a565b61118381611144565b840191505092915050565b600061119a8383611155565b905092915050565b6000602082019050919050565b60006111ba826110d2565b6111c481856110dd565b9350836020820285016111d6856110ee565b8060005b8581101561121257848403895281516111f3858261118e565b94506111fe836111a2565b925060208a019950506001810190506111da565b50829750879550505050505092915050565b6000606082019050818103600083015261123e8186611052565b9050818103602083015261125281856111af565b905081810360408301526112668184611052565b9050949350505050565b61127981610ebb565b82525050565b60006020820190506112946000830184611270565b92915050565b6000602082840312156112b0576112af610eb1565b5b60006112be84828501610edc565b91505092915050565b6000819050919050565b60006112ec6112e76112e284610ef1565b6112c7565b610ef1565b9050919050565b60006112fe826112d1565b9050919050565b6000611310826112f3565b9050919050565b61132081611305565b82525050565b600060208201905061133b6000830184611317565b92915050565b61134a81610f11565b82525050565b60006020820190506113656000830184611341565b92915050565b600082825260208201905092915050565b7f4f6e6c79206d61696e20636f6e74726163742063616e2063616c6c2e00000000600082015250565b60006113b2601c8361136b565b91506113bd8261137c565b602082019050919050565b600060208201905081810360008301526113e1816113a5565b9050919050565b6113f181610fbc565b81146113fc57600080fd5b50565b60008151905061140e816113e8565b92915050565b60006020828403121561142a57611429610eb1565b5b6000611438848285016113ff565b91505092915050565b7f496e76616c69642063616e6469646174652e0000000000000000000000000000600082015250565b600061147760128361136b565b915061148282611441565b602082019050919050565b600060208201905081810360008301526114a68161146a565b9050919050565b7f416c726561647920766f7465642e000000000000000000000000000000000000600082015250565b60006114e3600e8361136b565b91506114ee826114ad565b602082019050919050565b60006020820190508181036000830152611512816114d6565b9050919050565b7f4e487b7100000000000000000000000000000000000000000000000000000000600052601160045260246000fd5b600061155382610ebb565b91507fffffffffffffffffffffffffffffffffffffffffffffffffffffffffffffffff820361158557611584611519565b5b600182019050919050565b7f4e487b7100000000000000000000000000000000000000000000000000000000600052604160045260246000fd5b6000815190506115ce81610ec5565b92915050565b6000602082840312156115ea576115e9610eb1565b5b60006115f8848285016115bf565b91505092915050565b7f4e487b7100000000000000000000000000000000000000000000000000000000600052603260045260246000fd5b600080fd5b600080fd5b61164382611144565b810181811067ffffffffffffffff8211171561166257611661611590565b5b80604052505050565b6000611675610ea7565b9050611681828261163a565b919050565b600067ffffffffffffffff8211156116a1576116a0611590565b5b6116aa82611144565b9050602081019050919050565b60006116ca6116c584611686565b61166b565b9050828152602081018484840111156116e6576116e5611635565b5b6116f184828561111a565b509392505050565b600082601f83011261170e5761170d611630565b5b815161171e8482602086016116b7565b91505092915050565b60006020828403121561173d5761173c610eb1565b5b600082015167ffffffffffffffff81111561175b5761175a610eb6565b5b611767848285016116f9565b91505092915050565b600061177b82610ebb565b915061178683610ebb565b925082820261179481610ebb565b915082820484148315176117ab576117aa611519565b5b5092915050565b7f4e487b7100000000000000000000000000000000000000000000000000000000600052601260045260246000fd5b60006117ec82610ebb565b91506117f783610ebb565b925082611807576118066117b2565b5b828204905092915050565b600081519050919050565b600081905092915050565b600061183382611812565b61183d818561181d565b935061184d81856020860161111a565b80840191505092915050565b60006118658284611828565b915081905092915050565b7f566f74696e672073746174757320636865636b206661696c65642e0000000000600082015250565b60006118a6601b8361136b565b91506118b182611870565b602082019050919050565b600060208201905081810360008301526118d581611899565b905091905056fea2646970667358221220d62dae76d21d406d3592dc4c9782eedc0a4ff806c4e4e3e5cfdbb39d7d70d9ac64736f6c634300081c0033",
  "linkReferences": {},
  "deployedLinkReferences": {}
}