{
  "_format": "hh-sol-artifact-1",
  "contractName": "VotingPublic",
  "sourceName": "contracts/logic/VotingPublic.sol",
  "abi": [
    {
      "inputs": [
        {
          "internalType": "address",
          "name": "candidateManagerAddress",
          "type": "address"
        }
      ],
      "stateMutability": "nonpayable",
      "type": "constructor"
    },
    {
      "inputs": [],
      "name": "candidateManager",
      "outputs": [
        {
          "internalType": "contract CandidateManager",
          "name": "",
          "type": "address"
        }
      ],
      "stateMutability": "view",
      "type": "function"
    },
    {
      "inputs": [],
      "name": "getTotalVoters",
      "outputs": [
        {
          "internalType": "uint256",
          "name": "",
          "type": "uint256"
        }
      ],
      "stateMutability": "view",
      "type": "function"
    },
    {
      "inputs": [],
      "name": "getVotePercentages",
      "outputs": [
        {
          "internalType": "uint256[]",
          "name": "ids",
          "type": "uint256[]"
        },
        {
          "internalType": "string[]",
          "name": "names",
          "type": "string[]"
        },
        {
          "internalType": "uint256[]",
          "name": "percentages",
          "type": "uint256[]"
        }
      ],
      "stateMutability": "view",
      "type": "function"
    },
    {
      "inputs": [],
      "name": "getVotesBreakdown",
      "outputs": [
        {
          "internalType": "uint256[]",
          "name": "ids",
          "type": "uint256[]"
        },
        {
          "internalType": "string[]",
          "name": "names",
          "type": "string[]"
        },
        {
          "internalType": "uint256[]",
          "name": "votes",
          "type": "uint256[]"
        }
      ],
      "stateMutability": "view",
      "type": "function"
    },
    {
      "inputs": [
        {
          "internalType": "address",
          "name": "",
          "type": "address"
        }
      ],
      "name": "hasVoted",
      "outputs": [
        {
          "internalType": "bool",
          "name": "",
          "type": "bool"
        }
      ],
      "stateMutability": "view",
      "type": "function"
    },
    {
      "inputs": [],
      "name": "hasVotingEnded",
      "outputs": [
        {
          "internalType": "bool",
          "name": "",
          "type": "bool"
        }
      ],
      "stateMutability": "pure",
      "type": "function"
    },
    {
      "inputs": [],
      "name": "totalVoters",
      "outputs": [
        {
          "internalType": "uint256",
          "name": "",
          "type": "uint256"
        }
      ],
      "stateMutability": "view",
      "type": "function"
    },
    {
      "inputs": [
        {
          "internalType": "uint256",
          "name": "candidateId",
          "type": "uint256"
        },
        {
          "internalType": "address",
          "name": "sender",
          "type": "address"
        }
      ],
      "name": "vote",
      "outputs": [],
      "stateMutability": "nonpayable",
      "type": "function"
    },
    {
      "inputs": [
        {
          "internalType": "uint256",
          "name": "",
          "type": "uint256"
        }
      ],
      "name": "votesReceivedById",
      "outputs": [
        {
          "internalType": "uint256",
          "name": "",
          "type": "uint256"
        }
      ],
      "stateMutability": "view",
      "type": "function"
    },
    {
      "inputs": [],
      "name": "winnerList",
      "outputs": [
        {
          "internalType": "uint256[]",
          "name": "",
          "type": "uint256[]"
        }
      ],
      "stateMutability": "view",
      "type": "function"
    }
  ],
  "bytecode": "0x608060405234801561001057600080fd5b50604051611709380380611709833981810160405281019061003291906100db565b806000806101000a81548173ffffffffffffffffffffffffffffffffffffffff021916908373ffffffffffffffffffffffffffffffffffffffff16021790555050610108565b600080fd5b600073ffffffffffffffffffffffffffffffffffffffff82169050919050565b60006100a88261007d565b9050919050565b6100b88161009d565b81146100c357600080fd5b50565b6000815190506100d5816100af565b92915050565b6000602082840312156100f1576100f0610078565b5b60006100ff848285016100c6565b91505092915050565b6115f2806101176000396000f3fe608060405234801561001057600080fd5b506004361061009e5760003560e01c80635f5300ff116100665780635f5300ff1461014b578063793cf218146101695780639202825414610187578063a6a41f44146101b7578063ed252861146101d55761009e565b806302d947ef146100a357806309eef43e146100bf57806315d6af8f146100ef5780633c0476dd1461010d5780633dd079c01461012d575b600080fd5b6100bd60048036038101906100b89190610d8f565b6101f5565b005b6100d960048036038101906100d49190610dcf565b6103f8565b6040516100e69190610e17565b60405180910390f35b6100f7610418565b6040516101049190610ef0565b60405180910390f35b610115610707565b60405161012493929190611064565b60405180910390f35b6101356109b5565b6040516101429190610e17565b60405180910390f35b6101536109be565b60405161016091906110bf565b60405180910390f35b6101716109c4565b60405161017e91906110bf565b60405180910390f35b6101a1600480360381019061019c91906110da565b6109ce565b6040516101ae91906110bf565b60405180910390f35b6101bf6109e6565b6040516101cc9190611166565b60405180910390f35b6101dd610a0a565b6040516101ec93929190611064565b60405180910390f35b60008054906101000a900473ffffffffffffffffffffffffffffffffffffffff1673ffffffffffffffffffffffffffffffffffffffff1663439d4b8b836040518263ffffffff1660e01b815260040161024e91906110bf565b602060405180830381865afa15801561026b573d6000803e3d6000fd5b505050506040513d601f19601f8201168201806040525081019061028f91906111ad565b6102ce576040517f08c379a00000000000000000000000000000000000000000000000000000000081526004016102c590611237565b60405180910390fd5b600260008273ffffffffffffffffffffffffffffffffffffffff1673ffffffffffffffffffffffffffffffffffffffff16815260200190815260200160002060009054906101000a900460ff161561035b576040517f08c379a0000000000000000000000000000000000000000000000000000000008152600401610352906112a3565b60405180910390fd5b60016000838152602001908152602001600020600081548092919061037f906112f2565b91905055506001600260008373ffffffffffffffffffffffffffffffffffffffff1673ffffffffffffffffffffffffffffffffffffffff16815260200190815260200160002060006101000a81548160ff021916908315150217905550600360008154809291906103ef906112f2565b91905055505050565b60026020528060005260406000206000915054906101000a900460ff1681565b606060008060009054906101000a900473ffffffffffffffffffffffffffffffffffffffff1673ffffffffffffffffffffffffffffffffffffffff1663a9a981a36040518163ffffffff1660e01b8152600401602060405180830381865afa158015610488573d6000803e3d6000fd5b505050506040513d601f19601f820116820180604052508101906104ac919061134f565b905060008060005b838110156105ad5760008054906101000a900473ffffffffffffffffffffffffffffffffffffffff1673ffffffffffffffffffffffffffffffffffffffff1663439d4b8b826040518263ffffffff1660e01b815260040161051591906110bf565b602060405180830381865afa158015610532573d6000803e3d6000fd5b505050506040513d601f19601f8201168201806040525081019061055691906111ad565b156105a05760006001600083815260200190815260200160002054905083811115610587578093506001925061059e565b83810361059d578280610599906112f2565b9350505b5b505b80806001019150506104b4565b5060008167ffffffffffffffff8111156105ca576105c961137c565b5b6040519080825280602002602001820160405280156105f85781602001602082028036833780820191505090505b5090506000805b858110156106fb5760008054906101000a900473ffffffffffffffffffffffffffffffffffffffff1673ffffffffffffffffffffffffffffffffffffffff1663439d4b8b826040518263ffffffff1660e01b815260040161066091906110bf565b602060405180830381865afa15801561067d573d6000803e3d6000fd5b505050506040513d601f19601f820116820180604052508101906106a191906111ad565b156106ee57846001600083815260200190815260200160002054036106ed57808383806106cd906112f2565b9450815181106106e0576106df6113ab565b5b6020026020010181815250505b5b80806001019150506105ff565b50819550505050505090565b606080606060008060009054906101000a900473ffffffffffffffffffffffffffffffffffffffff1673ffffffffffffffffffffffffffffffffffffffff1663a9a981a36040518163ffffffff1660e01b8152600401602060405180830381865afa15801561077a573d6000803e3d6000fd5b505050506040513d601f19601f8201168201806040525081019061079e919061134f565b90508067ffffffffffffffff8111156107ba576107b961137c565b5b6040519080825280602002602001820160405280156107e85781602001602082028036833780820191505090505b5093508067ffffffffffffffff8111156108055761080461137c565b5b60405190808252806020026020018201604052801561083857816020015b60608152602001906001900390816108235790505b5092508067ffffffffffffffff8111156108555761085461137c565b5b6040519080825280602002602001820160405280156108835781602001602082028036833780820191505090505b50915060005b818110156109ae57808582815181106108a5576108a46113ab565b5b60200260200101818152505060008054906101000a900473ffffffffffffffffffffffffffffffffffffffff1673ffffffffffffffffffffffffffffffffffffffff1663e13804a7826040518263ffffffff1660e01b815260040161090a91906110bf565b600060405180830381865afa158015610927573d6000803e3d6000fd5b505050506040513d6000823e3d601f19601f8201168201806040525081019061095091906114d1565b848281518110610963576109626113ab565b5b60200260200101819052506001600082815260200190815260200160002054838281518110610995576109946113ab565b5b6020026020010181815250508080600101915050610889565b5050909192565b60006001905090565b60035481565b6000600354905090565b60016020528060005260406000206000915090505481565b60008054906101000a900473ffffffffffffffffffffffffffffffffffffffff1681565b606080606060008060009054906101000a900473ffffffffffffffffffffffffffffffffffffffff1673ffffffffffffffffffffffffffffffffffffffff1663a9a981a36040518163ffffffff1660e01b8152600401602060405180830381865afa158015610a7d573d6000803e3d6000fd5b505050506040513d601f19601f82011682018060405250810190610aa1919061134f565b9050600060035490508167ffffffffffffffff811115610ac457610ac361137c565b5b604051908082528060200260200182016040528015610af25781602001602082028036833780820191505090505b5094508167ffffffffffffffff811115610b0f57610b0e61137c565b5b604051908082528060200260200182016040528015610b4257816020015b6060815260200190600190039081610b2d5790505b5093508167ffffffffffffffff811115610b5f57610b5e61137c565b5b604051908082528060200260200182016040528015610b8d5781602001602082028036833780820191505090505b50925060005b82811015610cdf5780868281518110610baf57610bae6113ab565b5b60200260200101818152505060008054906101000a900473ffffffffffffffffffffffffffffffffffffffff1673ffffffffffffffffffffffffffffffffffffffff1663e13804a7826040518263ffffffff1660e01b8152600401610c1491906110bf565b600060405180830381865afa158015610c31573d6000803e3d6000fd5b505050506040513d6000823e3d601f19601f82011682018060405250810190610c5a91906114d1565b858281518110610c6d57610c6c6113ab565b5b602002602001018190525060008214610cb0578160646001600084815260200190815260200160002054610ca1919061151a565b610cab919061158b565b610cb3565b60005b848281518110610cc657610cc56113ab565b5b6020026020010181815250508080600101915050610b93565b505050909192565b6000604051905090565b600080fd5b600080fd5b6000819050919050565b610d0e81610cfb565b8114610d1957600080fd5b50565b600081359050610d2b81610d05565b92915050565b600073ffffffffffffffffffffffffffffffffffffffff82169050919050565b6000610d5c82610d31565b9050919050565b610d6c81610d51565b8114610d7757600080fd5b50565b600081359050610d8981610d63565b92915050565b60008060408385031215610da657610da5610cf1565b5b6000610db485828601610d1c565b9250506020610dc585828601610d7a565b9150509250929050565b600060208284031215610de557610de4610cf1565b5b6000610df384828501610d7a565b91505092915050565b60008115159050919050565b610e1181610dfc565b82525050565b6000602082019050610e2c6000830184610e08565b92915050565b600081519050919050565b600082825260208201905092915050565b6000819050602082019050919050565b610e6781610cfb565b82525050565b6000610e798383610e5e565b60208301905092915050565b6000602082019050919050565b6000610e9d82610e32565b610ea78185610e3d565b9350610eb283610e4e565b8060005b83811015610ee3578151610eca8882610e6d565b9750610ed583610e85565b925050600181019050610eb6565b5085935050505092915050565b60006020820190508181036000830152610f0a8184610e92565b905092915050565b600081519050919050565b600082825260208201905092915050565b6000819050602082019050919050565b600081519050919050565b600082825260208201905092915050565b60005b83811015610f78578082015181840152602081019050610f5d565b60008484015250505050565b6000601f19601f8301169050919050565b6000610fa082610f3e565b610faa8185610f49565b9350610fba818560208601610f5a565b610fc381610f84565b840191505092915050565b6000610fda8383610f95565b905092915050565b6000602082019050919050565b6000610ffa82610f12565b6110048185610f1d565b93508360208202850161101685610f2e565b8060005b8581101561105257848403895281516110338582610fce565b945061103e83610fe2565b925060208a0199505060018101905061101a565b50829750879550505050505092915050565b6000606082019050818103600083015261107e8186610e92565b905081810360208301526110928185610fef565b905081810360408301526110a68184610e92565b9050949350505050565b6110b981610cfb565b82525050565b60006020820190506110d460008301846110b0565b92915050565b6000602082840312156110f0576110ef610cf1565b5b60006110fe84828501610d1c565b91505092915050565b6000819050919050565b600061112c61112761112284610d31565b611107565b610d31565b9050919050565b600061113e82611111565b9050919050565b600061115082611133565b9050919050565b61116081611145565b82525050565b600060208201905061117b6000830184611157565b92915050565b61118a81610dfc565b811461119557600080fd5b50565b6000815190506111a781611181565b92915050565b6000602082840312156111c3576111c2610cf1565b5b60006111d184828501611198565b91505092915050565b600082825260208201905092915050565b7f43616e646964617465206e6f7420616374697665000000000000000000000000600082015250565b60006112216014836111da565b915061122c826111eb565b602082019050919050565b6000602082019050818103600083015261125081611214565b9050919050565b7f416c726561647920766f74656400000000000000000000000000000000000000600082015250565b600061128d600d836111da565b915061129882611257565b602082019050919050565b600060208201905081810360008301526112bc81611280565b9050919050565b7f4e487b7100000000000000000000000000000000000000000000000000000000600052601160045260246000fd5b60006112fd82610cfb565b91507fffffffffffffffffffffffffffffffffffffffffffffffffffffffffffffffff820361132f5761132e6112c3565b5b600182019050919050565b60008151905061134981610d05565b92915050565b60006020828403121561136557611364610cf1565b5b60006113738482850161133a565b91505092915050565b7f4e487b7100000000000000000000000000000000000000000000000000000000600052604160045260246000fd5b7f4e487b7100000000000000000000000000000000000000000000000000000000600052603260045260246000fd5b600080fd5b600080fd5b6113ed82610f84565b810181811067ffffffffffffffff8211171561140c5761140b61137c565b5b80604052505050565b600061141f610ce7565b905061142b82826113e4565b919050565b600067ffffffffffffffff82111561144b5761144a61137c565b5b61145482610f84565b9050602081019050919050565b600061147461146f84611430565b611415565b9050828152602081018484840111156114905761148f6113df565b5b61149b848285610f5a565b509392505050565b600082601f8301126114b8576114b76113da565b5b81516114c8848260208601611461565b91505092915050565b6000602082840312156114e7576114e6610cf1565b5b600082015167ffffffffffffffff81111561150557611504610cf6565b5b611511848285016114a3565b91505092915050565b600061152582610cfb565b915061153083610cfb565b925082820261153e81610cfb565b91508282048414831517611555576115546112c3565b5b5092915050565b7f4e487b7100000000000000000000000000000000000000000000000000000000600052601260045260246000fd5b600061159682610cfb565b91506115a183610cfb565b9250826115b1576115b061155c565b5b82820490509291505056fea26469706673582212207fcabea66e58860a40f80cf0608933902b7e2b323083d18470ccba596ed9da1d64736f6c634300081c0033",
  "linkReferences": {},
  "deployedLinkReferences": {}
}